:100000004029002051040000490400004D04000074
:1000100049040000490400004904000000000000F9
:100020000000000000000000000000003177000028
:100030004904000000000000957600007D76000075
:10004000510400005104000051040000510400005C
:1000500000000000510400005104000051040000A1
:10006000510400005104000051040000510400003C
:10007000F1A3000021A4000051A4000051040000DD
:10008000510400005104000051040000510400001C
:100090005104000051040000510400000000000061
:1000A00051040000510400005104000051040000FC
:1000B000510400000000000079100000A949000070
:1000C0000000000000000000000000000000000030
:1000D0000000000000000000000000000000000020
:1000E0000000000000000000000000000000000010
:1000F0000000000000000000000000000000000000
:10040000FFFFFFFFFFFFFFFFFFFFFFFFFEFFFFFFFD
:1004100008B5E1204002002109F04AFF08BDC046AE
:1004200010B5041C0548211C09F012FF044A13787A
:10043000591C1170034AD45410BDC04600A0064098
:1004400020F2FF1FD011002072B6FEE772B6FEE761
:1004500010B5144B144A9A420ED2144B114A03326F
:10046000D21A92080132920000230F481049CC584A
:10047000C45004339342FAD10E4B0F4A9A420ED223
:100480000E4B0C490331C91A890801318900002338
:10049000141C00201A19106004338B42FAD103F0A7
:1004A000CBFA10BD20F2FF1F00F0FF1F04F0FF1F6A
:1004B00078DA0000C027002020F2FF1F24F2FF1F7F
:1004C00010B50E480E4910220BF0CCFB002811D1BC
:1004D0000C480BF0FBFB0A4C201C07F0FFFC0A4801
:1004E0000BF0F4FB201C103007F0F8FC0A2000F0A1
:1004F00085F801E009F09EF910BDC04624F2FF1F07
:10050000F412002044D0000078D0000008B500208C
:10051000FFF77EFF0348002107F0ACFE024809F018
:1005200083F908BD68F1FF1F2D05000070B584B088
:10053000294B1B78212B21D1274C617827480BF0C0
:10054000C5FB0022264B1A806378502B3BD1002339
:1005500000930193029303936846224908320BF0FB
:1005600090FB21480BF0B2FB684607F0B7FC0A206D
:1005700000F044F8684608F0C9FD24E03F2B22D182
:10058000154C617819480BF0A1FB63784D2B17D1FE
:10059000114A2C3B13700021154E16480F250131CE
:1005A0004B1EF35C1C09045D94702B40C35CD3703C
:1005B00002320829F3D11222094B1A8009F03AF9C4
:1005C0000022074B1A800C4A034B083313CB13C28B
:1005D0001B68136004B070BDEC12002080D00000D6
:1005E000D8120020EE120020A8D00000B8D00000E1
:1005F000E4120020D8D0000024F2FF1F10B5041C24
:100600000C4B1B7C002B08D1C020FFF709FF0D20ED
:10061000FFF706FF0122074B1A74E0B2FFF700FF55
:100620000A2C05D1C020FFF7FBFE0022014B1A74F3
:10063000201C10BD24F2FF1FF0B5474680B482B0E5
:10064000051C0091161C104807F0E6FF041E17D089
:100650000D4B043301930C4B9846012D04D801989F
:1006600008F01CF8031C01E043469B68281C009915
:10067000321C6768B847201C08F01CF8041EECD137
:1006800002B004BC9046F0BD38F2FF1F38B50C4CE8
:10069000201C07F059FC0B4D281C0C3007F0B8FF4C
:1006A000201C0C30084903F0E3FA201C1C3007F032
:1006B0004BFC281D07F0ACFF281C07F0A9FF38BD34
:1006C00000F0FF1F38F2FF1F6108000008B5002886
:1006D00007D0416804480C3003F01EFC02F080FF94
:1006E00000E0002008BDC04600F0FF1F08B502482A
:1006F0000C3007F091FF08BD38F2FF1F08B5002845
:1007000002D007F0D7FF00E0002008BDF0B583B0AD
:100710000090FFF7EBFF041E2DD00027002301936C
:100720002426A55DBD420BD3211C0831EA080098A0
:100730000BF098FA002803D1802D07D02F1C0194CC
:10074000201CFFF7DBFF041EEBD100E00194019DAC
:10075000002D11D00A480C3007F05EFFA8420BD0E4
:10076000074C0C34201C291C07F064FF201C291C9A
:1007700007F08AFF00E00190019803B0F0BDC04689
:1007800038F2FF1F70B5002848D04368002B45D0D1
:10079000051C23480C30291C07F04CFF6B68586877
:1007A00007F03AFF041E33D04368AB4207D0201C49
:1007B00007F080FF041E2BD04368AB42F7D16B6873
:1007C0005868211C07F036FF6B68586807F024FF53
:1007D000002805D16B68596812480C3003F06CFB97
:1007E000104E301C291C07F0E1FB301C2830211C66
:1007F00007F0DCFB0A4A9368013B9360281CFFF773
:1008000065FF021C291C08310320FFF715FF05E0D6
:10081000281C083007F062FB0024D0E770BDC046FA
:1008200038F2FF1F00F0FF1F10B5002815D04368F5
:10083000002B12D0041C181C07F0EEFE002807D075
:100840004068FFF79FFF606807F0E6FE0028F7D1D9
:1008500002480C30211C03F02FFB10BD00F0FF1FDD
:1008600008B5FFF7E1FF08BDF0B583B0041C0090A8
:100870000F1C151C0192101C02F0B6FE061E6DD056
:10088000201CFFF743FF041E0DD0FFF71FFF011EC2
:1008900006D0281C10220BF0E5F9231C002862D09A
:1008A000201CFFF76FFF314B9B68042B05D12F48AD
:1008B0000C3007F0B3FEFFF765FF2D480C30311CFC
:1008C00003F0E2FA051E0BD129480C30311C03F06D
:1008D0002DFA051E44D068600023036007F098FEDF
:1008E000234807F041FB041E3CD020480C30211C5B
:1008F00007F0CAFE1E48283007F036FB011E05D15E
:100900001B48211C07F052FB00232CE04460686860
:1009100007F0AAFE6560154A936801339360201CB6
:100920000830009D291C10220BF0ABF92423E7545A
:10093000221C002323766376A376E37623776377FE
:10094000A377E3771832137253729372D372022033
:10095000291C019AFFF770FE231C04E0002302E02B
:10096000002300E00023181C03B0F0BD38F2FF1F85
:1009700000F0FF1F10B5041C0F48043007F04CFEB8
:10098000002818D0A04212D101E084420FD10A48B9
:100990000430211C07F04EFE08481C30211C07F0D3
:1009A00005FB221D0120111CFFF746FE03E007F0A6
:1009B00081FE0028E9D110BD38F2FF1F00F0FF1FB3
:1009C00038B5051C0B48043007F026FE041E0DD078
:1009D000201D291C10220BF045F9002808D0201CEE
:1009E00007F068FE041EF3D1002002E0002000E0C2
:1009F000201C38BD38F2FF1F70B5051C0E1CFFF718
:100A0000DFFF041E0AD112481C3007F0ADFA041EA5
:100A10001CD010480430211C07F036FE201D291C74
:100A200010220BF02EF9002E07D0201C1430311CA0
:100A300009F0B6FC0023237701E00123237700208F
:100A4000291C2A1CFFF7F8FD201C00E0002070BDC7
:100A500000F0FF1F38F2FF1F70B50C48043007F09C
:100A6000DBFD041E0FD02226251D281C02F08AFD66
:100A7000002802D0835D002B06D1201C07F01AFE4F
:100A8000041EF1D100E00025281C70BD38F2FF1FC4
:100A900038B51048043007F0BFFD041E18D00D4BC8
:100AA0001D1D237F002B0DD1201C143009F080FC6C
:100AB000002807D0201CFFF75DFF281C07F0ACFDC5
:100AC000041C03E0201C07F0F5FD041C002CE8D1F9
:100AD00038BDC04638F2FF1F0B2805D11B4A1168EC
:100AE00080230B43136030E00E2806D1174A1368A9
:100AF000802109020B43136027E00F2805D1144A17
:100B0000116802230B4313601FE0031C103B1F2BD3
:100B10000DD8FF221040103840090E4A9446604418
:100B200080001F2213401E3A9A4002600DE00A4BDB
:100B3000984203D1C022094B1A6006E0084B984244
:100B400003D1C0229203054B1A60704724ED00E0E8
:100B500010E000E0403800381617000000E100E027
:100B60002425000010B5041C8260C3600AF06CFCF0
:100B70002060616010BDC04630B50268436884687B
:100B8000C56812196B410260436030BD10B5041C8A
:100B90000AF05AFC2060616010BDC04670B5041CAC
:100BA0000AF052FC0122002325686668521BB341FB
:100BB00012184B41111C1A1C0120E368934204D304
:100BC00002D1A3688B4200D3002070BDF0B5474628
:100BD00080B486B002AA23490B1C083331CB31C242
:100BE0001B681360CB7901931F4B1B78002B17D028
:100BF0003A228A711D480288D21A92B20280101CD1
:100C0000283800120871101C28384871081C2C3034
:100C10002C3359182C3A0BF03DF80022124B1A7065
:100C2000134807F0F9FC041E15D00F4B98460D4FE2
:100C30000E4E6568002D09D043461A783832D21915
:100C400033882C3B9BB202A80199A847201C07F0CF
:100C500031FD041EEDD10022044B1A8006B004BC05
:100C60009046F0BDEC12002019F4FF1FD8120020AE
:100C700084F3FF1FF8B52C4B2C4A1279DA711B7ED6
:100C8000FF2B0ED12848031C1833021C083232CA2D
:100C900032C312681A600830011C103109F03AF9A9
:100CA00015E0234A204B111D181C083070C870C174
:100CB00004680C60191C0831181C1830E0C8E0C129
:100CC000006808601833043223CA23C31C60194B20
:100CD0001978002918D0144B3A229A7116480288C4
:100CE000521A92B20280101C283800121871101C7F
:100CF00028385871181C2C302C31C9182C3A0AF09D
:100D0000C9FF00220B4B1A700A4B1C782834064B83
:100D1000E4188123237000236370638000F0EAFDF0
:100D2000C0436080F8BDC046EC120020582100206E
:100D300084F3FF1F19F4FF1FD812002038B5041CDC
:100D40000D1C1148143007F067FC002818D00379F7
:100D5000A34208D143799D4201D0FF2B03D1012347
:100D6000002805D10DE007F0A5FC0028EFD107E031
:100D70008368002B02D09847002302E0012300E0A3
:100D80000123181C38BDC04684F3FF1F08B5011CA1
:100D90000248143007F068FC08BDC04684F3FF1F0A
:100DA000F0B5474680B482B0061C0C1C0192564B2D
:100DB0001B78002B08D02833544AD35C3A2B10D12F
:100DC0000022534B1A809AE0504B9B793A2B08D162
:100DD000123B4E4AD35C7F2B03D800224C4B1A8027
:100DE0008DE00022484B1A704A4B0433474A1832B0
:100DF00023CA23C312681A60454B1B8830339BB249
:100E0000A022D200934202D8414A138003E0A022DC
:100E1000D2003F4B1A804048071C303F3C4B1A8899
:100E2000303A391C0AF036FF60233B7000237B7098
:100E30007B803A33BB71394B1B79FB713B89002BAB
:100E40001FD1324B5B89002B1BD1304B9B89002B70
:100E500017D12E4BDB89002B13D12C4B1B8A002B77
:100E60000FD12A4B5B8A002B0BD1284B9B8A002B7E
:100E700007D1264BDB8A002B03D10022244B1A809A
:100E80003DE0224B1A1C1832083323CB23C21B68C7
:100E90001360204B1B79FF2B0DD1042E07D1022CA0
:100EA00005D11F481B49043109F034F808E000223D
:100EB000174B1A8023E01A481649043109F02AF822
:100EC000114D2B7898462833104FDB191E705C703B
:100ED000019801F0DFFE43462C33F8500C4B1B8881
:100EE0001A1C283A12123A71283B7B712B7828334E
:100EF000DF1900237B8000F0FDFCC043788002B046
:100F000004BC9046F0BDC04619F4FF1FEC1200204F
:100F1000D812002084F3FF1F1C130020582100204A
:100F2000F4120020F0B557464E46C0B483B001908D
:100F30008A4691461D1C194C602323700027677058
:100F40006780263BA371164B1B79E3712B1D1B1287
:100F500023712B1D6371261C1836301C0199102239
:100F60000AF08FFE201C0830311C08F0D3FF0D4B17
:100F70001B7828331C19534623704B4663706780D7
:100F800000F0B8FCC04360802C35074B1D8000F09A
:100F900089F903B00CBC91469A46F0BDEC120020D2
:100FA0005821002019F4FF1FD812002010B5044C5E
:100FB000201CFFF7EBFE201C0C30FFF7E7FE10BDF6
:100FC00034F0FF1F00B583B002F0A0F900230093B6
:100FD0000D480E49C0221F3302F024F8002800D02B
:100FE000FEE7002300930A480A49A022D2000233F8
:100FF00002F018F8002800D0FEE702F053FA0028AB
:1010000000D0FEE703B000BD75780000ECD0000012
:10101000C9370000F8D000000D4B98420DD00D4BA1
:1010200098420CD00C4B98420BD00C4B98420AD0F3
:101030000B4B984209D0002008E00A4806E00A4815
:1010400004E00A4802E00A4800E00A487047C04647
:1010500000F00F4040F00F4080F00F40C0F00F4014
:1010600000F10F400090044000A0044000B0044094
:1010700000C0044000D00440F0B5474680B4124B95
:101080001A6890461A6841460A431A600F4C261C9B
:101090004036F0252D060F043F0C2268130C1B046C
:1010A000AB420AD13A4208D063689C46002B04D078
:1010B0000020414600220023E0470834B442ECD12E
:1010C00004BC9046F0BDC046A09004409CF3FF1FB6
:1010D00010B5436901248C40A343436143698A40AE
:1010E0001A43426110BDC046F0B583B0061C0D1C0A
:1010F0000192002401273B1CA3401D4204D0301C58
:10110000211C019AFFF7E4FF0134202CF3D103B036
:10111000F0BDC04670B50C1C151CFFF77DFF002309
:101120000121084E221CDA40114205D002683240EB
:10113000026002682A43026001330430202BF1D19F
:1011400070BDC046FFFF00FF38B50C1CFFF764FF01
:1011500000230121064D221CDA40114202D0026810
:101160002A40026001330430202BF4D138BDC04640
:10117000FFFF00FF416070478160704770B50C1C35
:10118000151CFFF749FF002301214026221CDA40ED
:10119000114205D00268B243026002682A4302602D
:1011A00001330430202BF1D170BDC04610B50305CA
:1011B0001B0E9B00020B0F210A409200064C125995
:1011C0009B181C68054A22401A601A6808400002F1
:1011D0001043186010BDC04600D10000FFF8FFFFAB
:1011E00008B5044802F0D0FF002802D0014802F000
:1011F000C3FF08BDE0F3FF1F08B5054B9B69002B3B
:1012000001D0984703E0034802F098FA002008BD97
:10121000E0F3FF1F14D10000014B98617047C046F6
:10122000E0F3FF1F08B5104B0021312299549B8B2E
:10123000002B10D10C4B1C3301E00B4B24331880D6
:101240000A4A12685A6000F0CBFB0CE002213123FD
:10125000054AD15407E0044B0121312299549B8C5B
:10126000002BF3D1E9E708BDE0F3FF1F680A002077
:10127000024B1B688362C1627047C046680A002047
:1012800008B505480221002206F0EAFF0022034BC0
:101290001A80034B1A7008BD4CF0FF1FD8120020B3
:1012A00019F4FF1F70B5814B1B88002B00D1FBE0A8
:1012B000A022D200934206D97D4802F03FFA0022D4
:1012C0007A4B1A80F0E07B4B1B8B002B22D1794BA1
:1012D0005B8B002B1ED1774B9B8B002B1AD1754B50
:1012E000DB8B002B16D1734B1B8C002B12D1714B57
:1012F0005B8C002B0ED16F4B9B8C002B0AD16D4B5E
:10130000DB8C002B06D16C4802F018FA0022674BE8
:101310001A80C9E0674B1B7EFF2B00D1BCE06748F9
:1013200008F0B0FC002821D16448FFF7EFF9041E53
:1013300014D1FFF791FB051E19D1614B1B78002BCF
:1013400005D05C4C2823E55C00F0FCFAA5715D4BF0
:101350005B6898470022554B1A80A5E0FFF7B6F965
:10136000051E04D1201CFFF70DFA9DE0534D281CEB
:1013700002F008F9041E41D1281C0021002200239C
:1013800002F0CEF8041E03D10022484B1A808BE0F5
:10139000051C2835281CFA221201002302F0FCFA51
:1013A00000280BD0281C02F02DFB404E328841490A
:1013B0000AF067FC3188281C02F036FB424808F02E
:1013C00081FC002805D040480021221C03F088FF42
:1013D00004E000200021221C03F082FF251C1835A8
:1013E0003A4B1869FA2189000AF06CF8011C281C94
:1013F00008F0D6FF01222023E25455E02223C35CEB
:10140000002B18D12834201CFA221201002302F0EC
:10141000C3FA00280BD0201C02F0F4FA234D2A88CE
:1014200024490AF02EFC2988201C02F0FDFA002233
:101430001E4B1A8038E0022B09D103222033C254FC
:101440001030052108F0ACFF00222023E254201CBC
:1014500002F08EF8FFF7D0FE251C2835281C02F07C
:10146000D9FA002814D0281C02F0D4FA0F4E30808C
:10147000281C02F0C7FA011C32880E480AF001FC51
:10148000281C02F0ABFA201C02F072F8FFF7B4FE41
:101490000022064B1A8007E00020FFF7ADFE002275
:1014A000024B1A80064B1A7070BDC046D81200203D
:1014B00058D10000EC1200207CD100000413002061
:1014C00019F4FF1F3CD00000F41200205821002026
:1014D000F8B54F464646C0B4041C161C0388002BC2
:1014E00003D0634A93421DD0BAE0624D0023AB8320
:1014F000AB8402223233EA545F4B1B68EB6206F086
:1015000023FE5E4B1870281CFA225200002302F0C2
:1015100023FE00F0FBF95A4B1B689847544B23807D
:101520000120A0E0022900D17FE002D8002970D07C
:10153000F4E7872902D0882927D0EFE74D4D002214
:101540003323EA541C35002399464A4B98463327E7
:101550006B689E4206D1288800F022FA4B462B8009
:101560004B466B6008354346DB5D0133DBB24246D8
:10157000D355012BECD9434B9B6A9E42CED1414BB4
:1015800000229A6225215A54C8E73A4B9E4227D13D
:10159000181C02F0F9FD002822D000213323354A1F
:1015A000D154384F384D2523FB5C002B10D03148E7
:1015B00002F0E2FD33232F4AD35C5A00D3181B01FB
:1015C000304A9B182B60022000F058FAFFF76AFEA1
:1015D000284933228B5C0133DBB28B54002BE2D0E1
:1015E0002A4B9E4208D1181C02F0CEFD002803D0E1
:1015F00000F014FAFFF756FE254B9E428ED1181CC0
:1016000002F0C2FD002889D008F01CFDFFF74AFE59
:1016100084E7002E82D01C4B1E60032000F02EFABF
:10162000FFF740FEFFF7DCFD78E71A4B1B88002B25
:1016300000D173E7184B9B79062B06D12F33164A3E
:10164000D35C9B0701D5FFF7CBFD012000F016FA14
:10165000104B1B88002B00D160E7FFF723FE5DE7EE
:101660000023038003200CBC90469946F8BDC04679
:101670003A030000E0F3FF1F680A0020D0120020A8
:101680003CD00000FC160020F8160020381700207F
:1016900048230020D8120020EC12002010B5194B6E
:1016A0001C68194B1B785B0623D5184B002134228C
:1016B0009954228A9B8B934203D1144B1B6A002BB3
:1016C00009D1124B9B8C93420DD1104B9B6A012088
:1016D000002B01D107E0002034220C498854A3627A
:1016E0000023E36203E002213423084AD154FFF7C8
:1016F00077FDA06A002804D0054B1978E26A06F04D
:10170000AFFD10BDF8160020EC160020E0F3FF1F1F
:10171000D012002030B5013A8A18914214D20C1C24
:1017200023781B026578EB189BB2C01880B2834205
:1017300001D9013080B20234A242F1D8CB439B18C8
:101740005B0801335B00C918914207D10B781B027B
:10175000181880B2834201D9013080B230BDC04632
:10176000F8B5294B02221A705F783D1C28352749AD
:1017700069184C78E400083402233F263CE05919EC
:10178000224A944661440878012807D0002802D0F4
:10179000632808D00EE00133DBB22DE04A78023234
:1017A0009B18DBB228E04A7802329B18164A137065
:1017B000002028E0B043C2B2802A04D0C02A09D059
:1017C000402815D102E0104A137009E00E4A137048
:1017D000012018E00C4A13700C4A127EFF2A11D027
:1017E0002837FA1804200221FFF7DAFA02200AE06B
:1017F0004A7802329B18DBB2A342C0DB024A137064
:10180000002000E00120F8BD18F4FF1FEC120020BA
:1018100070B582B0114B5D78114C23791B025B1BB4
:101820006279D3189BB26A46961DD380D388181864
:1018300080B2211C08312022FFF76CFF328892B25F
:1018400028352919FFF766FF002804D00302000A93
:10185000184380B200E0034802B070BD18F4FF1FC7
:10186000EC120020FFFF000070B5C5786D18EDB2D6
:10187000144CE5700E0A83789B19DBB2A370427892
:101880006270007820709CB2A64207D90132D2B2B1
:101890000C4C6270002A01D101302070C9B2A942FB
:1018A0000EDD0133DBB2074A9370002B08D1537869
:1018B0000133DBB25370002B02D113780133137064
:1018C00070BDC046E012002010B5011C074C206816
:1018D0001430FFF7C9FF2368054A1178197551784C
:1018E000597591789975D278DA7510BDF81600207F
:1018F000E012002008B53A20FFF78AFF08BDC04675
:1019000008B50620FFF784FF08BDC04608B508F0FB
:10191000E7FBFFF74BFB03F019FE074B00221A8091
:101920005A802523054A0021D154054B01229A7083
:101930008022D2009A8008BD30170020FC160020BB
:1019400018F4FF1F70B5134B5D78002D21D0124B9A
:101950001C882B1C28339C4205DA00230D4A537047
:101960000D4A138015E00D48061C283E4119221C23
:10197000283A521B0AF08EF9641BA4B2064B1C8055
:10198000231C283B1B123371283C74710022014B2D
:101990005A7070BD18F4FF1FD812002014130020D5
:1019A00000220D4B9A700D4B1B8883420BD10023F4
:1019B00000E001235B000021084A99520BE002225B
:1019C000054B9A7007E00122034B9A70034B5B882A
:1019D0008342F4D1EDE7704718F4FF1F3017002061
:1019E00000220C4B9A700C4B1B88002B09D100E095
:1019F00001235B00084A98520BE00222054B9A70C3
:101A000007E00122034B9A70034B5B88002BF4D153
:101A1000EEE7704718F4FF1F3017002010B50022C2
:101A2000104B1A70104802F0C9FB104B1B7B9B0730
:101A300017D500220E4B1A800C4B5A700D491033EB
:101A40000A1C13CB13C213CB13C213CB13C21B68D4
:101A50001360032001210022FFF7A2F9064B0022A8
:101A60001A7010BD2C1700203817002018F4FF1F23
:101A7000D8120020EC120020EC160020F8B54F46DA
:101A80004646C0B4BE4B1C68BE4BBF4A1360BF4A3B
:101A9000136003281BD12523E35C0F221340032B83
:101AA0000BD1A38B002B01D001F0B8F8073AB84B4B
:101AB0001A70FFF7F3FD00F069FF022B01D001F06F
:101AC000ADF800213333B34AD15400F050FD022861
:101AD00000D086E00023B04A1380B04A1380B04A99
:101AE000D37A0133DBB2D372002B0ED1937A013358
:101AF000DBB29372002B08D1537A0133DBB25372FD
:101B0000002B02D1137A013313722523E35C0222E6
:101B1000191C91430A1E052A0DD12132A35C013301
:101B2000DBB2A354782B01D001F078F80022533BAC
:101B3000E25401F073F8002B01D101F06FF8A28B91
:101B4000002A41D02621625C501E6054002A01D038
:101B500001F064F82732A25C082A04D0591E01293A
:101B60000FD8052A0DD100222523E2548032884B5C
:101B70001A70FFF793FD14213523864AD15400F0E3
:101B8000EAFF3021042A02D82D399140C9B226201B
:101B900021540132272162540F221340DAB2082A5D
:101BA00001D901F03BF89B007E4AD3589F460021A3
:101BB0003523784AD15400F0DAFC0422744B1A70B1
:101BC000FFF76CFD00F01CFF0F221340032B01D028
:101BD00001F024F8073A6E4B1A70FFF75FFD00F032
:101BE000D5FE6C4B1B780F229343602B04D06E48BC
:101BF00001F0A4FD01F012F8664A13795279190236
:101C000089186548008881420ADC28321B02D318F3
:101C1000614A13805F4B1B7AFF2B06D100F0FEFF59
:101C2000624801F08BFD00F0F9FF614B614A1360DF
:101C300000225B494A7060490A741B78002B1CD152
:101C400001320A74FFF78CFD012801D100F0E6FF94
:101C5000002804D0022801D100F0DCFF0DE050483C
:101C60004378191C28314B4A8918524A11600833AD
:101C70001A1C4B78DB00D3184370504808F022F848
:101C8000002804D14D4808F0CDF8002805D0494E71
:101C9000434C1834424D2835F3E03E4B1B7EFF2B5E
:101CA00000D18FE03B4A118B454A914200D189E037
:101CB000384A1189424A914200D18AE000291DD157
:101CC000344B5B89002B19D1324B9B89002B15D1EA
:101CD000304BDB89002B11D12E4B1B8A002B0DD1F1
:101CE0002C4B5B8A002B09D12A4B9B8A002B05D1F8
:101CF000284BDB8A002B01D100F090FF254B1B8B7A
:101D0000002B1FD1234B5B8B002B1BD1214B9B8BBB
:101D1000002B17D11F4BDB8B002B13D11D4B1B8CC2
:101D2000002B0FD11B4B5B8C002B0BD1194B9B8CC9
:101D3000002B07D1174BDA8C80235B009A4201D12C
:101D400000F06CFF144B1A88A023DB009A4206D9DE
:101D5000022000211A1CFFF723F800F05BFF0D4B57
:101D6000DB79012B06D8032000210A1CFFF718F8A5
:101D700000F050FF013B074AD37100F04BFFC04613
:101D8000F816002028130020F4160020DC12002092
:101D9000EC160020EC120020D81200205017002072
:101DA00018F4FF1FC0D1000000D3000018D30000BA
:101DB000F2120020F016002018F8FF1F0413002074
:101DC000FE800000CD4A1189CD4A914201D000F039
:101DD00025FFCA4A1289002A1DD1C84A5289002A01
:101DE00019D1C64A9289002A15D1C44AD289002A3B
:101DF00011D1C24A128A002A0DD1C04A528A002A41
:101E000009D1BE4A928A002A05D1BC4AD28A002A48
:101E100001D100F003FFB94A128B002A1FD1B74A43
:101E2000528B002A1BD1B54A928B002A17D1B34A94
:101E3000D28B002A13D1B14A128C002A0FD1AF4A9B
:101E4000528C002A0BD1AD4A928C002A07D1AB4AA2
:101E5000D18C80225200914201D100F0DFFEFF2B95
:101E600001D100F0DBFEA74807F00CFF002801D0ED
:101E700000F0D4FE013002210022FEF791FF00F0B5
:101E8000C9FE326813783C2B00D9D9E19B009E49EA
:101E9000CB589F469D4B197CCB0700D5D0E1012341
:101EA0000B439A4A1374FFF75BFC012801D100F041
:101EB000B5FE002804D0022801D100F0ABFEE0E717
:101EC00093484378191C28318C4A8918914A11602B
:101ED00008331A1C4B78DB00D3184370D1E78B4BC7
:101EE0001B7C990707D5590600D5A9E14022134369
:101EF000864A137403E002221343844A1374FFF7E3
:101F00002FFC012801D100F089FE002804D002280E
:101F100001D100F07FFEB4E77D484378191C2831D9
:101F2000764A89187B4A116008331A1C4B78DB000B
:101F3000D3184370A5E7754B197C4B0700D57FE19B
:101F400004230B43714A1374714B5B781A1C181CE1
:101F500028306A494118C878002809D02A3204205C
:101F60000021FEF71DFF6C4801F0E8FB00F052FE77
:101F7000684A116008331A1C4B78DB00D318644A96
:101F800053707EE7654B1B78002B1CD1604F381CCB
:101F900010307A782832594B9846191C09F071FE96
:101FA0005F48604A002302F0D7F801225B4B1A70A9
:101FB00000233B7355497A784244D26A4A618B6167
:101FC000CB610B624B62201C5749102209F04AFE7C
:101FD000002801D000F022FE281C4A49102209F0F6
:101FE00041FE002801D000F019FE494B5A78111C1F
:101FF0002831424BCB18454949695868884201D07D
:1020000000F00CFE4949098830398A1A92B291468B
:102010005A881102120A0A4345490A40904610D1D3
:102020003B4A117B0220014311733A4909681B782E
:102030000B70101C103052782832304909F021FE04
:1020400003E08023DB009A4205D847464F448023B3
:10205000DB009F4207DD0022304B1A70304802F04F
:10206000ADF800F0DBFD2A4B5978244B5B185B8DF3
:10207000DB0509D4264A137B01200343137343462F
:102080004B44224A138515E04B465B0712D00420CF
:102090000021021CFEF784FE1D4A137B04210B4322
:1020A000137300221D4B1A701D4802F087F81F4B56
:1020B0001F88B0E0081C2830031C4344144810302B
:1020C000C0180B1C30330D4959184A4609F0D9FD88
:1020D00043469B09B9118B422ED10C4AD31815499E
:1020E000FF1007221740C85D4746FF083A408A5C48
:1020F0008243111C1A7E0A431A7644E0EC12002037
:10210000FE80000004130020E4D1000018F8FF1F37
:1021100018F4FF1FF016002048D300002C170020F1
:102120003817002060EA0000F4120020D8120020C6
:10213000F8FF0000F8D20000D84881469944424692
:102140009206520FD648825C94464A46127E6046FA
:1021500002434846027601331A1C994209DDCF48F2
:102160008446FF206244107601339BB21A1C9942C8
:10217000F8DCCA4B5918BF067F0FC94BDB5DDA4349
:102180000B7E13430B76C74B1B7BDB0701D400F0A0
:1021900045FDC24B188D870912D01B7EFF2B01D045
:1021A00000F03CFDBD4B18337A1E92B29A1805E040
:1021B00001331978FF2901D000F030FD9342F7D1A7
:1021C000B64BDF198006400FB54B1B5CDB433A7EF4
:1021D000DBB29A4201D000F021FD0022B24B1A700E
:1021E000B24801F0EBFFAD4A178D3B1C2833AD49D7
:1021F0004F78FF18BFB21785AD4B98461031181CA9
:102200003A1C09F03EFD3B1C283B1B124246137151
:102210003B1C283B5371A74B1F80002F01D100F0BE
:10222000FDFCA04B1B7B5B0701D500F0F3FC0023FA
:102230009C4A5370994A13749F4AA04B1A6020E637
:102240009B4BD21A04200121FEF7AAFD9C4801F005
:1022500075FA00F0DFFCFFF74DFB9A4B984204D073
:10226000994801F06BFA00F0D9FC8E4B5B7828336B
:102270001A1C8F4BD31818785978FEF75FFD012888
:1022800004D1924801F05AFA00F0C8FC894B1B882F
:10229000002B01D100F0C2FC00F0BCFCFFF752FBA8
:1022A000FFF72EFB874B984201D000F0B7FC804B24
:1022B0005E8D002E01D100F0B1FC1F8D002F01D1E9
:1022C00000F0ACFC2523824AD55C002D0DD0138A8A
:1022D000B3420AD1538ABB4207D17E48111C102257
:1022E00009F0C0FC002800D15AE13523704AD35CC4
:1022F0003F221340022B0ED1684B5E850022694BB2
:102300009A70754B1B88B34201D000F0A0FC59E0D5
:102310000222644B9A703523654AD35C5B0701D572
:1023200000F07CFC131C1421352299542831614A99
:102330001180143134229954053A995C884633252A
:10234000585D98542E241A5D32201E5C1E551A5476
:102350002D26985D03341F5D9F5518552C27DC5D95
:10236000504EB4703026995DD9559C554146013187
:10237000C9B2595500290ED10132D2B232234C498B
:10238000CA54002A07D1431CDBB231328B54002BD4
:1023900001D1631C8B55464B1A8D40494A85598D96
:1023A00019855A851A1C1832083313CB13C21B68BF
:1023B00013604848494907F0ADFD00F00EFC0022CB
:1023C000384B9A702523424AD35C002B01D000F091
:1023D00037FC0AE03E4C0122324B9A70002C05D1AA
:1023E0003F4801F0ABF900F019FC394C3D4B1C6043
:1023F00003232622A354023AA3540023023AA354EF
:1024000004210132A1540432A35426826782284D4C
:102410002B1C0833221C43CB43C21B6813600120D2
:102420002523E0541F4B1A7A22765A7A62769A7ADA
:10243000A276DB7AE376A0832F23EB5CE3752E2371
:10244000EB5CA3752D23EB5C63752C23EB5C237590
:10245000FFF73AFA3423EA5C253B111C99435029D3
:1024600000DC7EE000230F498B701209053A9200D0
:102470002C210A48455C68E00D48C0183C300578BE
:10248000002D06D1074A937000212C23034AD15412
:1024900067E0012D28D10133DBB256E018F8FF1FA9
:1024A000F8D2000018F4FF1F2C1700203817002066
:1024B000EC120020D8120020F2120020F0160020AA
:1024C00068D30000FFFF000084D300009CD300000D
:1024D000FC160020F4120020301700200413002006
:1024E000BCD30000F8160020022D1FD1C8484018A8
:1024F0003D300078042819D1C64A9370C64802229C
:102500002C23C254C24B5B181A1C3E3212781202A2
:102510003F331B78134343851A1CF12189008B42FA
:1025200001D9BE4B1A88E28322841AE0B848844657
:1025300061443D310978002905D1B64A93702C23B6
:10254000B54AD5540DE0CB18DBB2191E914293DB8E
:10255000B04A93702C23B04AD55402E0B04C00E04E
:10256000AF4C10213523AA4AD15400E0AC4CA84B03
:102570003521585C022202435A543C223339995483
:10258000023101329954013901329954C131013279
:1025900099548439A34A1180203134229954E1E2BC
:1025A0009F4AA14B1A600022A04B1A703523984A0B
:1025B000D15C04240C400CD00021103B984AD1542B
:1025C0009B4801F0BBF82022984B1A70FFF766F881
:1025D00024E334238E4AD35C1B099A008D4B9A70F6
:1025E00090480388283B9B1A9BB203800F2215401A
:1025F000022D04D130320A40122A06D11EE0012DEC
:1026000003D13F220A40022A18D0002B01D18B07A8
:1026100014D07F4B9A8D824B9B8A9A4205D17C4B7A
:10262000DA8D7F4BDB8A9A4208D08B0700D48DE28B
:10263000012D93D0022D00D088E297E7CB0652D52A
:10264000774B998B00294ED07A48FFF70DF930234C
:102650006F4AD55C784B1B78AB4244D13123D05CB8
:10266000754B5B7883423ED13223D15C724B9B78B1
:102670008B4238D13323D25C6F4BDB78934232D11B
:10268000674B1D7658769976DA7627229B5C002B6D
:102690001FD1634922200A5C2433CB5C26254D5D83
:1026A0005B1BD5085B1BDBB2DEB29A18D2B20A54B0
:1026B00071B2002901DA5B42DEB259482325415D3F
:1026C0008B08C91A8B19DBB24355D2089B182422F8
:1026D00083540122554B1A70514B2332995C0232BC
:1026E000995400229A8325234D4AD15C163B0B4016
:1026F000013BDAB2072A00D990E2DBB29B004F4AD5
:10270000D3589F46494B1B78DB0718D5444B032110
:10271000252299543D31454A117000229A83414B3C
:102720001888904204D04232404B1A70FFF7CCF820
:102730000022434B1A80FEF7B1FF394C26E13523C6
:10274000334AD25C0A331340022B00D066E207E71B
:10275000364B1B78DB0700D49EE035232C4AD25C35
:102760000A331340122B00D096E02233284AD35C60
:102770000F22191C914350296EDD0021254A9170CA
:102780001B09053B99002C23234AD05C5CE0204ABE
:1027900012193C321078002806D11E4B9C70002183
:1027A0002C231D4AD15457E0012802D10134E4B250
:1027B0004AE002281FD1164AD2183D321278042A64
:1027C00019D1144A947014492C228854104AD318F1
:1027D0001A1C3E32127812023F331B7813434B858A
:1027E0001A1CF12189008B4201D90C4B1A880C4B21
:1027F000DA831A8430E0064AD2183D321278002A71
:1028000020D1044B9C702C23034AD05424E0C046B2
:10281000EC12002018F4FF1F18F8FF1FBED10000B3
:10282000FC160020D8120020F8160020EC1600201C
:10283000E0D3000014170020E0120020D8D20000DE
:10284000501700201419E4B2231E8B429FDBB54BB6
:102850009C702C23B44AD054B44C03222523E25458
:10286000B34B29329A5C22752D229A5C62752E2216
:102870009A5CA2752F229B5CE3750120FFF724F878
:102880004222AC4B1A700023A383AB4A1380AB4A9D
:102890001380FEF703FF79E02022A64B1A70FEF7A3
:1028A000FDFEA74B1A6800212523D15433E53523BB
:1028B0009F4AD35CDA0727D5CA0625D49B4B9B8B4E
:1028C000002B00D0AAE19C4C2088013080B2FEF79A
:1028D000FBFF98490B7810221A430A702288002ABD
:1028E00002D0122213430B70FEF7D8FE8F4C012347
:1028F000A38308222433E25400220233E25411213C
:1029000035238B4AD15426E19B0611D588483A23BA
:10291000C35C1A023B23C35C8A4C101C1843256815
:10292000AC4660442060844813430288D31A038075
:10293000814B1888002808D0CB0606D47D4A13782E
:1029400002210B431370FEF7BFFF794A3623D35C95
:102950001B023721525CD3189BB2734A5385734ACA
:10296000128C934201D8002B01D16F4B5A856E4BCC
:102970005A8D6E4BDA836F4B1B789B0700D14DE16C
:1029800000226E4B1A80FEF789FE684C694B1B785B
:102990009A0609D50022694B1A802523E254142196
:1029A0001033634AD154D6E0DA060FD50022634BC8
:1029B0001A800123A38304322433E2540233002219
:1029C000E25411210E335A4AD154C4E05B4A1288B2
:1029D000002A12D0DB0702D50023A38302E0A38BD9
:1029E000002B08D1E38B9A4201D9544A1380534BF0
:1029F0001B88A38301E0514A138000222723E2545D
:102A0000514B1A684F4B1A604C4B1B88002B0AD055
:102A1000A38B002B07D03C33474A13801821352362
:102A2000434AD1549AE0434B1B789B0700D4F5E00E
:102A30003C22414B1A80102135233D4AD1548DE070
:102A40003C4B1B78DB0700D4E8E000212523374A04
:102A5000D1541022374B1A70FEF720FEDEE0364BC1
:102A60001888002801D0FEF72FFF3523304AD35CA9
:102A7000DB0719D52F4B1B78DB0708D52B4B07211C
:102A80002522995400221F315A549A8303E00621CB
:102A90002523264AD1540120FEF716FF1022254B8C
:102AA0001A70FEF7FBFD51E0224B1B78DB0706D5C1
:102AB0001E4B05212522995400229A83AEE01E4B1D
:102AC0001B88002B42D1A9E01B4B1888002800D19D
:102AD000B0E0FEF7F9FE3523154AD35CDB070FD5CE
:102AE000124B0721252299540021013299540120CB
:102AF000FEF7EAFE10220F4B1A70FEF7CFFD25E01D
:102B00000D4B1B88002B21D188E00A4B1B78DB077B
:102B100000D483E0054B072125229954002101327E
:102B200099547BE018F4FF1F18F8FF1FFC160020D3
:102B3000EC120020EC160020D812002050170020C4
:102B4000F8160020F4160020DC1200201021352396
:102B5000454AD154454C3C22454B1A8050213423E0
:102B6000414AD154227D40483023C254627D013312
:102B7000C254A27D0133C254E27D0133C254227E8D
:102B8000073BC254627E0133C254A27E0133C25459
:102B9000E27E0133C254238A0385638A4385031C82
:102BA0001833221C62CA62C312681A600830011C02
:102BB000103107F0AFF92523E35CDB0606D52A4B7D
:102BC000002237215A5401395A5406E0264B03217A
:102BD00036229954E53101329954234C0623A371CE
:102BE000244B1B79E371224B1B881A1C283A1212C2
:102BF0002271283B637100253B23E554013BE554DA
:102C00002587FEF77DFEC0432087602323700023C5
:102C1000637065800022184B1A7020E00022144B6C
:102C20001A800023154A00215170154A1374124A64
:102C3000137014E035230C4AD35CDB07EED54FE765
:102C4000072B01D1FFF7C6FB0024FFF7C4FB0D4B98
:102C50005B88B34201D0FFF75BFBFFF7B0FB0CBC16
:102C600090469946F8BDC046EC120020FC160020A4
:102C7000D812002058210020EC16002018F4FF1F65
:102C800018F8FF1F301700200302000A184380B213
:102C90007047C046030C020480B21043000A0004CF
:102CA0001A0A1B0213439BB21843704710B5041C49
:102CB000144B186800280AD0134BF1229200944656
:102CC00063441B1A0A1E9A4207DD1A1C05E00A1CFF
:102CD000F1239B00994200DD1A1C002A10DD0B4BEA
:102CE0001A80A0420CD0211C002805D11204120C1D
:102CF000054808F0C6FF03E01204120C08F0C1FFFB
:102D000010BDC046DC120020281300205017002000
:102D1000012842D800281FD1204B21495A58802031
:102D2000000102435A501F495A588020C0030243F1
:102D30005A501D4B802292005A619A61DA611B4BF6
:102D4000DA785A7900221A705A7020329A70DA783A
:102D500050221A70DB7820E001281ED10F4B104959
:102D60005A588020400102435A500E495A58802038
:102D7000000402435A500E4B802292005A619A611D
:102D8000DA610C4BDA785A7900221A705A702032C4
:102D90009A70DA7850221A70DB787047007004401D
:102DA000381000003410000000B0044000600740FC
:102DB00000C004400070074030B5051C41180A4AA5
:102DC00020240A48D3782342FCD0D3782B7853713F
:102DD000D3785BB2002BFBDAD378537903700135DB
:102DE0008D42EFD130BDC0460060074045F8FF1F5F
:102DF00070B582B00D1CFF226B46DA71041C074EC1
:102E00006B46D81D0121FFF7D7FF33782370013DB2
:102E10000134002DF4D102B070BDC04645F8FF1F4B
:102E200030BFFDE7014B18887047C04648F8FF1FC8
:102E3000074B1B8801339BB2FA221202934202D045
:102E4000034A138002E00022014B1A807047C046FB
:102E500048F8FF1F70B5304B1B78DDB22F4B9C78C4
:102E6000002C51D12C4B1B78002B4FD000284FD079
:102E7000061C04F0D7FC294B1B88F618284B9E42F1
:102E80000AD96B005B19DB00264AD318C022D20096
:102E9000944666449E8105E06B005B19DB00214A85
:102EA000D3189E816B005B19DB001E4A9A181E4BDB
:102EB0001968002907D00A61131C51611A490A6078
:102EC00000221A610BE0184B1A60184B1A606B0055
:102ED0005B19DB00134AD31800221A615A610F4AAA
:102EE0006B005B19DB000F49CB189B7B9B001049E3
:102EF0005B58516899435160802252050D4B1A600E
:102F000062B604F093FC04E0042402E0082400E02C
:102F10000924201C70BDC046BD17002048F8FF1FC3
:102F2000FFF900005C1E00204C1F0020581E0020EE
:102F300008D4000004ED00E0F8B5224B1C68002C1A
:102F40003DD0214D2F1CA2892B889A4234D1A67BDB
:102F500004F068FCB6001D4BF3587A6813437B609D
:102F60001B4BA38104F062FC164B1B689C420FD1E3
:102F7000184B1B689C4205D10023164A1360114A66
:102F8000136015E023690F4A136000225A610FE0B5
:102F9000104B1B689C4205D163690E4A13600022E6
:102FA0001A6105E0236962695A61636922691A61DD
:102FB00080225205084B1A602469002CC3D108F006
:102FC0005FFAF8BD581E002048F8FF1F08D4000023
:102FD000E9FDFFFF4C1F002004ED00E00B4B002239
:102FE00000211A800A4801700A4801709A609A818B
:102FF000094B191C2031FF321A7001338B42FBD16F
:103000000023064A1360064A1360704748F8FF1F02
:10301000BD170020981700209C1700204C1F00208F
:10302000581E0020F0B55F4656464D464446F0B463
:1030300083B000900191161C1D1C6B4B1B78002463
:10304000002B02D004F0EEFB041C03239E433F2E12
:103050000AD8654B1B780220002B00D1BCE0201C55
:1030600004F0E4FB0220B7E0B708604B9B89FB1833
:10307000D022520093420AD95B4B1B780120002BCF
:1030800000D1A9E0201C04F0D1FB0120A4E0002D18
:103090001BD01F2D0AD9544B1B780320002B00D1C5
:1030A0009AE0201C04F0C2FB032095E0504B5B5DCE
:1030B000FF2B15D04C4B1B780420002B00D18BE04C
:1030C000201C04F0B3FB042086E0474B1B7807204C
:1030D000002B00D180E0201C04F0A8FB07207BE03F
:1030E000444A137801331370404B9968CB076CD571
:1030F00001230120DAB29246021C9A4011420AD101
:1031000053460133DBB29A460A43384B9A60534622
:10311000002B0DD102E00133082BEBD1324B1B7891
:103120000A20002B58D0201C04F080FB0A2053E01A
:103130000C9B002B01D052461A6053465B00994607
:103140005344DB002C4A019999502C4B9B465B68F9
:10315000F3184A465244D2002749884690441A1C24
:10316000403A41464A60082242448B600192957180
:103170001F4B504658550098311C04F0FBFA1B4A6F
:103180009389FB1893815B465B68F318584643604C
:103190001B4B01998B800021434619614B465344D8
:1031A000DB001548844663445961AD00154BEB586C
:1031B00051680B4353600C4B1878C0B200280BD0F9
:1031C000201C04F033FB002006E001230A1C1A43F4
:1031D00006498A609A46ABE703B03CBC90469946E4
:1031E000A246AB46F0BDC046BD17002048F8FF1F01
:1031F0009C170020981700205C1E00205CF0FF1F29
:10320000E8FDFFFF08D40000F0B54F4680B482B05F
:1032100001900C1C2D4B1B780025002B02D004F0D4
:1032200001FB051C03239C433F2C09D8274B1B782B
:103230000220002B45D0281C04F0F8FA022040E0C0
:10324000A708234B9B89FB18D0225200934209D92F
:103250001E4B1B780120002B33D0281C04F0E6FA0B
:1032600001202EE01B4B99465B68E3181A4E191C8F
:103270004039DC22B1500432B3500022E623F2542C
:103280000932164B1A700198211C04F073FA104B86
:103290009A89BF189F814A465268944664444A46B8
:1032A00054600F49E422B152E33A59680A435A6024
:1032B000064B1878C0B2002803D0281C04F0B6FAD8
:1032C000002002B004BC9146F0BDC046BD170020EE
:1032D00048F8FF1F5CF0FF1F5C1E00209C170020B9
:1032E000E8FDFFFF064A0023137013721374137670
:1032F000044A13701373044A1370137313767047E0
:1033000054170020C01700207417002008B5FFF7DD
:10331000E9FFFFF763FE04F0A1F908BD424B9842B4
:1033200041D9424B98421DD9414B98420BD9414B50
:10333000984202D9C00F1E3074E03F4B8342804157
:1033400040421C306EE03D4B984205D93C4B8342D5
:10335000804140421A3065E03A4B8342804140420E
:1033600018305FE0384B98420ED9384B984205D957
:10337000374B834280414042163053E0354B834205
:103380008041404214304DE0334B984205D9334BD5
:10339000834280414042123044E0314B83428041BD
:1033A000404210303EE0FF2820D92E4B98420ED9E3
:1033B0002D4B984205D92D4B8342804140420E301F
:1033C00030E02B4B8342804140420C302AE0294BB5
:1033D000984205D9284B8342804140420A3021E07F
:1033E000264B83428041404208301BE00F280DD914
:1033F0003F2805D97F23834280414042063011E0B7
:103400001F2383428041404204300BE0032805D94A
:103410000723834280414042023003E0012383427C
:10342000804140427047C046FFFF0000FFFFFF00A1
:10343000FFFFFF0FFFFFFF3FFFFFFF1FFFFFFF0328
:10344000FFFFFF07FFFFFF01FFFF0F00FFFF3F0030
:10345000FFFF7F00FFFF1F00FFFF0300FFFF0700CC
:10346000FFFF0100FF0F0000FF3F0000FF7F000093
:10347000FF1F0000FF030000FF070000FF01000026
:1034800008B5054B1B68054A50681840FFF746FF12
:10349000034B185C08BDC0465CF0FF1F48F8FF1FD7
:1034A0009C17002010B50C48C021FFF7ADFE041E8C
:1034B0000FD1FFF7E5FF094B18701B785A00D3189E
:1034C000DB00074AD3185A68064B1A6062B600DF61
:1034D00000E00124201C10BD212E0000BD1700209B
:1034E0005C1E00202021002010B5002808D0041CFC
:1034F000283000F073FA034B1868211C00F0DCFC44
:1035000010BDC0466CF0FF1F08B5034B1868034997
:1035100000F0AEFB08BDC0466CF0FF1FE9340000B0
:10352000F8B5051C171C1E1C104B186800F0FEFB9C
:10353000041E18D0291C102208F0A3FB2123E754F5
:103540000133E654201C283000F022FA201C1030F1
:10355000002106F025FF201C1830002106F020FF76
:1035600000222023E254201CF8BDC0466CF0FF1F4F
:1035700008B5011C024B186800F0CEFC08BDC0461F
:103580006CF0FF1F70B5051C0F4B186800F0B0FB06
:10359000041C002D11D0002811D00B4E201C291C1A
:1035A000102208F05FFB00280BD03068211C00F0CF
:1035B00073FB041EF2D1002004E0002002E0002092
:1035C00000E0201C70BDC0466CF0FF1F08B5011C58
:1035D000024B186800F058FC08BDC0466CF0FF1F95
:1035E00008B5FFF7F3FF08BD08B5FFF7CBFF0028CC
:1035F00002D0FFF7BDFF00E0002008BD08B51B208A
:1036000001F0F8FA014906F0ABFE08BDBCD9000094
:1036100070B5474B186800F06BFB041E00D185E0C5
:10362000FA25AD002223E35C012B06D0002B0ED03F
:10363000032B32D0042B42D070E0201C103006F057
:10364000B7FE00286AD002222223E25466E020233B
:10365000E35C022B03D9201CFFF746FF5EE0261C2B
:103660001836301C06F0A4FE002857D0314B1B88BA
:10367000002B53D12022A35C0133A354002000214E
:10368000221C01F02DFE2C4B1869291C07F01AFF93
:10369000011C301C06F084FE40E0201C103006F0B7
:1036A00087FE00283AD004222223E2540022023B63
:1036B000E254201C1830002106F072FE2EE0202378
:1036C000E35C022B0DD9201CFDF77AF9002804D009
:1036D000037F002B01D1FDF74DF9201CFFF704FFFC
:1036E0001CE0261C1836301C06F062FE002815D09F
:1036F000104B1B88002B11D12022A35C0133A35453
:103700000020211C221C01F0EBFD0B4B1869291C29
:1037100007F0D8FE011C301C06F042FE044B18686E
:10372000211C00F0B9FA041E00D07BE770BDC04632
:103730006CF0FF1FD81200205821002008B5011C92
:10374000014804F057FF08BDA0D4000010B507F0F1
:1037500073FE154806F00CFE14481549082208F0BF
:1037600090FA04F055FB04F09BF804F0F5FC1148C6
:10377000002104F07FFD06F05FF900F0D9F90E4852
:1037800006F0FEFD00200D4905F020F80C480D491B
:1037900004F030FF094C04F0EBFC0028FBDC20684F
:1037A000002105F06FF8F6E798D40000E41200203D
:1037B000B4270020A0F0FF1FE8D60000501F002013
:1037C000ACD40000C8D4000008B5FFF7BFFFC04666
:1037D00010B5041C4388002B02D0B72B0ED046E056
:1037E000002A03D100234380022045E04160028289
:1037F00000222023C25434E0B72363802023E35CFB
:10380000062B03D11D4B1B785A0711D5238A1C4A5E
:103810001268D18B8B4203D96068FFF747FA03E047
:103820006068191CFFF742FA06222023E25422E0C6
:10383000DB0720D5238A124A1268D18B8B4207D925
:103840005B1A2382D38B626894466344636005E00D
:10385000626894466344636000232382012220232C
:10386000E254238A002BC7D100222033E2540023E4
:103870006380032000E0002010BDC046EC1600204D
:10388000F8160020C369008B181A80B27047C04632
:10389000031C428A0120002A0CD120329A5C022AA1
:1038A00004D103211E329954002003E0024B187802
:1038B0008007C00F7047C046EC16002038B5041CC6
:1038C0000D1C4388002B04D08322520093420AD05F
:1038D0003EE0838BC26842610383638A002B23D15D
:1038E0000733FF336380201CFFF7D2FF002832D05C
:1038F00002222023E254184B1B68A360174B1B883D
:10390000638211E0A3681A7863691A70A3680133AF
:10391000A360636901336361638A013B6382238B24
:10392000013B2383954209D0238B002B03D0638A6C
:10393000002BE7D1D1E7638A002BCED0A28B238B5B
:103940009A4205D100232022A3546380002002E084
:1039500000236380032038BDF4160020D812002015
:1039600010B50023202403554382C160C261416128
:1039700002830380438010BD10B5041C03482168F6
:1039800004F014FB0023236010BDC04688F0FF1F25
:10399000002303607047C04670B582B0141C1D1C24
:1039A00000230268002A12D1061C0A4804F0DCFA3F
:1039B000306000280AD08123DB009C466044064B1F
:1039C00000930196221C2B1C06F046F83368181C45
:1039D00002B070BD88F0FF1F7939000010B5036890
:1039E000002B0BD0041C8122D200981806F056F848
:1039F0000348216804F0DAFA0023236010BDC046B2
:103A000088F0FF1F0068002801D0043000E000208B
:103A10007047C0460368002B02D0024A985A00E063
:103A200000207047040400000368002B01D0014A05
:103A3000995270470404000008B5324B32495A5875
:103A40008020800002435A503049314A9950314910
:103A50005A588020400202435A501A68C02000037E
:103A600002431A6058582C4A024080204004024306
:103A70005A502A4B996C2A4A11409964D96C0A40D1
:103A8000DA64284B24225A708021274A11709A2226
:103A90001A70D9787B3A0A40DA7021221A71002212
:103AA0005A71191C10328B791342FCD11D490C221A
:103AB0008B791340082BFBD140221A4B5A71191CE9
:103AC000343A8B791340082BFBD1164940228B796D
:103AD0001342FCD01A22134B1A70191C0E3A8B7920
:103AE00013400C2BFBD10F4A517914330B43537104
:103AF0000E4A917801230B439370FDF763FA00207F
:103B000008BDC046007004403810000000000110DD
:103B10004410000004100000FFFFFFFC0090044070
:103B2000FFF8FFFE004006400050064000D007406E
:103B300010B5064B1868002807D01C1C002104F0A3
:103B400099FB043420680028F8D110BD80F0FF1FD5
:103B5000002806D04B1C06D043685943C068401863
:103B600002E0002000E000207047C046002806D098
:103B7000044B9B68C01A8010034B584301E001209E
:103B80004042704794F0FF1FABAAAAAA08B50028CC
:103B900008D0002909D0031CC268881A596807F0A8
:103BA00021FD04E00120404201E00120404208BD27
:103BB00038B5051C0C1C081C111CFFF7E7FF002C76
:103BC00008D0431C08D02B5C20680341181C01233B
:103BD000184002E0002000E0002038BD70B5051C50
:103BE0000C1C1E1C081C111CFFF7D0FF002C16D04B
:103BF000431C16D0002E08D02818226801239340B9
:103C000002781343037001200CE028182268012376
:103C100093401A1C037893430370012002E00020B4
:103C200000E0002070BDC04638B5051E00D10E4D25
:103C30000E4804F0F1FC041E13D0002D09D0211D04
:103C4000281C06F08DFB002803D0201CFFF78EFFF8
:103C500009E0201C04F02EFD041EEED1012040429C
:103C600001E00120404238BDBCD90000F401002031
:103C700010B5084B5B680022072B08D8054A5C1C6E
:103C80005460036081609B00D31898600122101C6F
:103C900010BDC046F4010020F8B5041C0E1C124FE4
:103CA000124D2835201C311CFFF770FF431C06D035
:103CB000430018188000BB689C46604400E0002068
:103CC00004F0F8FCFFF752FF011C201CFFF740FF37
:103CD000061E06D0281C211C321CFFF769FF002895
:103CE000E0D0301CF8BDC04694F0FF1FF401002066
:103CF00070B5061C0C4C201C04F08EFCFFF736FF40
:103D0000011C301CFFF724FF051C201C2830311C2F
:103D10002A1CFFF74DFF002804D1301C291CFFF797
:103D2000BBFF051C281C70BDF4010020F0B55746F0
:103D30004E464546E0B484B0041C0D1E00D14F4DE4
:103D4000281CFFF771FF071C431C5ED14C4804F090
:103D50000BF9061E7AD14B4804F05EFC071E52D0C8
:103D6000002399460193474E381CFFF7FFFE331C92
:103D700030331B5C002B17D1424B28331B5C002BCC
:103D800071D000220120011C194052185B10FAD199
:103D9000019B002B03D04A4506DA914600E091468C
:103DA0004B46002B43D00197381C04F083FC071EC0
:103DB000DAD13FE03768002F14D0BB689A46002B59
:103DC00010D00198FFF7D2FE011C381CFFF7C0FE8F
:103DD000021C03900298391CFFF7EAFE012801D16A
:103DE0000398D04704364645E4D1019E301CFFF7C6
:103DF000BDFE244B1A1C283200211154181C311C02
:103E000004F018FC22E0002032E0201C391CFFF7EF
:103E10009FFE051C0021626807F050FF19482830FA
:103E2000211C2A1C0123FFF7D9FE281C20E0019742
:103E300000E00197019B002BE5D0124B1E1C0836B9
:103E400028229046984443460293B3E70D48311C1C
:103E500004F00AFC301CFFF789FE071C301D291CEA
:103E600006F078FAD1E7019B002BE2D0002292E71E
:103E700004B01CBC90469946A246F0BDBCD90000D7
:103E800094F0FF1FF401002038B5051C081CFFF753
:103E9000CBFE011C281CFFF75BFE041C05482830E4
:103EA000291C221CFFF784FE002801D0201C00E002
:103EB000002038BDF4010020F8B5061C0D1C094C8B
:103EC000201C2830311C2A1C0023FFF787FE071C0A
:103ED000201C3030311C2A1C0023FFF77FFE381CC9
:103EE000F8BDC046F401002008B5031C0A1C0348B5
:103EF0003030191C0123FFF771FE08BDF4010020CA
:103F000008B5031C0A1C03483030191C0023FFF7B6
:103F100065FE08BDF401002008B5FFF737FE431C1D
:103F20000AD0430018188000044B9B681B1800201F
:103F3000002B02D0181D00E0002008BD94F0FF1FE8
:103F400008B50A4801F012FB094A1169094B0B40F8
:103F50000421FF310B4313610748F339A0221203F8
:103F6000FDF7D8F82F20FCF7B7FD08BD104800007A
:103F700000C00440FCF8FFFEC0F00F40014B186089
:103F80007047C0467C020020024B1A68024B1A6040
:103F90007047C0467C02002000810440024B55223D
:103FA0001A6055321A60704704810440F0B583B03E
:103FB0001D4B1B68002B05D1002000211A4B986077
:103FC000D9602FE007F040FA061C0F1C00960197FD
:103FD000154B1B689C68DD6819685A686418554160
:103FE000311C3A1C641A95411E69002E13D0B26828
:103FF000F3683068716812184B4100980199121AE1
:104000008B419D4202D803D1944201D9141C1D1C3E
:104010003669002EEBD10098019900196941024BD5
:104020009860D96003B0F0BD8002002008B5024856
:1040300004F03EF908BDC046A0F0FF1FF0B54746AA
:1040400080B4071C0388002B02D0592B07D053E003
:1040500000222C4B1A6059233B8001204FE0872916
:104060001ED1284B1B68002BF5D059698A4213D109
:104070001B69002B03D10022224B1A60EBE7596920
:104080008A42F5D01F490B6006E04869824202D19E
:104090000969196100E00B1C19690029F5D1DAE7FB
:1040A0008229D8D1174B9846002643461C68002C1D
:1040B000D1D0351C00E01C1C201CFCF76FFD002833
:1040C00015D060698821221C04F0A2F800280CD1C8
:1040D0006661002D02D023692B6102E0094B226941
:1040E0001A602661FFF762FFDFE7FFF79FFF236992
:1040F000251C002BDFD1AEE700230380032004BC86
:104100009046F0BD8002002010B5041CFFF78EFF22
:104110006369002B11D00E4B1B68002B0DD09C4205
:1041200008D101E09C4205D10A4B1B686361FFF78F
:104130003DFF0BE01B69002BF4D1064B1B6863614C
:10414000034B1A6822611C60FFF730FF10BDC046A8
:1041500080020020680A002010B5041CFCF702FD54
:10416000201CFFF7D1FF10BD10B5041CFCF704FDA7
:10417000201CFFF7C9FF10BD10B5041CFCF706FD9D
:10418000201CFFF7C1FF10BD4069434258417047F2
:1041900030B58468C56802684368201C291C8018F3
:1041A000594130BD044B1B6800200021002B02D078
:1041B000014B9868D96870478002002010B5041E32
:1041C0000F4B1A68944204D102691A60FFF7EEFEA1
:1041D0000CE0002A0AD01369834205D1131C09E0C0
:1041E0001A69A24206D0131C002BF9D100232361C7
:1041F000636104E022691A61FFF7D8FEF6E710BD9B
:104200008002002000207047014B1878C0B2704730
:104210009002002070B582B0224B597801AAC308E1
:10422000802464422343137040015070002922D03F
:104230001C4D00236B701C4C201C1021FCF784FFCC
:104240001A4E301C1021FCF797FF01A80221FEF73F
:10425000B3FD6B46D81D0121FEF7CAFD301C1021AD
:10426000FCF788FF01236B70201C1021A022120391
:10427000FCF750FF11E00D4C201C1021FCF77CFFD7
:1042800001A80221FEF798FD6B46D81D0121FEF71B
:10429000AFFD201C1021FCF76DFF6B46D87902B0F2
:1042A00070BDC04690020020C0F00F4080F00F406B
:1042B00070B582B01D4B5C7801ABC20880256D42A1
:1042C0002A431A7040011022104358709970002C34
:1042D0001DD0164D00236B70154C201C1021FCF7CF
:1042E00033FF144E301C1021FCF746FF01A80321B8
:1042F000FEF762FD301C1021FCF73CFF01236B70C0
:10430000201C1021A0221203FCF704FF0CE0094C32
:10431000201C1021FCF730FF01A80321FEF74CFD03
:10432000201C1021FCF726FF02B070BD9002002077
:10433000C0F00F4080F00F4070B582B01B4B5C782E
:1043400001AA40000123184310705170002C1DD0A9
:10435000164D00236B70164C201C1021FCF7F4FE48
:10436000144E301C1021FCF707FF01A80221FEF7B4
:1043700023FD301C1021FCF7FDFE01236B70201C77
:104380001021A0221203FCF7C5FE0CE0094C201CF2
:104390001021FCF7F1FE01A80221FEF70DFD201C03
:1043A0001021FCF7E7FE02B070BDC046900200206D
:1043B000C0F00F4080F00F4008B50C4B9B78002BED
:1043C00012D10B4880210901FCF7D4FE36200421CC
:1043D000FFF7B2FF36200021FFF7AEFF054807F0D8
:1043E00045F80122014B9A70012008BD900200207F
:1043F00080F00F40C409000008B50F4B9B78002BDC
:1044000017D000220C4B9A700C4880210901FCF750
:10441000B3FE22208021FFF78FFF2A200421FFF71F
:104420008BFF0D206021FFF787FF35208021FFF7EC
:1044300083FF012008BDC0469002002080F00F409D
:1044400038B5104DAC78E4B2FFF7B6FF0423EB703B
:104450001B200121FFF770FF0A4AD378042BFCD000
:10446000002C01D1FFF7C8FF064BD878C0B2022854
:1044700004D0032804D0431E984102E0022000E04B
:10448000032038BD9002002070B584B06B46D8710F
:10449000214A5178C2B25200DA71002923D01E4D50
:1044A00000236B701D4C201C1021FCF74DFE1C4E90
:1044B000301C1021FCF760FE6B46D81D0121FEF771
:1044C0007BFC0F2068440121FEF792FC301C102178
:1044D000FCF750FE01236B70201C1021A022120358
:1044E000FCF718FE12E00E4C201C1021FCF744FED5
:1044F0006B46D81D0121FEF75FFC0F2068440121A7
:10450000FEF776FC201C1021FCF734FE0F236B44D1
:10451000187804B070BDC04690020020C0F00F4073
:1045200080F00F4010B53620FFF7AEFF041C0421C9
:104530000B1C0343D9B23620FFF7FEFEFB212140BE
:104540003620FFF7F9FE024806F090FF10BDC04686
:10455000C409000008B50D20FFF796FF012318439A
:10456000C1B20D20FFF7E8FE08BDC04608B5011C2A
:104570000B39090103231943C9B280208000FFF7DA
:1045800097FEFFF7CFFF08BD08B5011C0148FFF7F4
:104590008FFE08BD0302000070B5624800F0E6FF20
:1045A0006148FCF703FE6148FCF700FE6048FCF739
:1045B000FDFD604C201C10214022FCF7DFFD802512
:1045C000ED00201C291C4022FCF7D8FD8026360176
:1045D000201C311C4022FCF7D1FD201C291CFCF7BB
:1045E000CBFD201C291C0122FCF77EFD201C311C68
:1045F000FCF7C2FD201C311C0122FCF775FD201CBC
:104600001021FCF7B7FD201C10210122FCF76CFDE6
:104610000122494B5A70FFF793FC201C311CFCF718
:10462000A9FD0020FEF774FB201C291CFCF7A4FD4B
:10463000424E301C06F01AFF201C291CFCF79AFD84
:10464000301C06F013FF2A200721FFF775FE072410
:104650002A20FFF719FF0442FAD1384806F006FF76
:1046600018209821FFF768FE0B20FFF77FFF3448E2
:104670000221FFF71DFE33488021FFF719FE0020BD
:10468000FFF782FF30489021FFF712FE2F4880216C
:10469000FFF70EFE822080000221FFF709FE88202E
:1046A00080002121FFF704FE3A207821FFF744FE25
:1046B0003F206021FFF740FE254C5F25201CFFF7BF
:1046C000A9FDA843C0B2A028F8D100200021FFF71F
:1046D00033FE11201C21FFF72FFE1120FFF7D4FE1F
:1046E0002E209521FFF728FE27203021FFF724FEFA
:1046F00018480121FFF7DCFD0F4B00221A715A7197
:10470000DA701A7001329A70FFF70CFFFFF722FF80
:104710001148002103F0AEFD3220F621FFF70CFE18
:10472000002070BD0848000041200000A1200000CA
:10473000B120000080F00F4090020020C40900006A
:104740000102000002020000060200000702000051
:104750000F02000011020000B0F0FF1F10B53E2054
:10476000FFF792FE802149420843C1B23E20FFF785
:10477000E3FD01243E20FFF787FE0442FAD08420A7
:104780008000FFF747FD024B58715879C0B210BD49
:104790009002002038B5094B9D78EDB2FFF70CFE72
:1047A000FFF7DCFF00235F2282425B41DCB2002D79
:1047B00001D1FFF721FE201C38BDC0469002002029
:1047C00070B54B1EDEB21B0617D40C1C051C002056
:1047D0000021FFF76DFD0120211CFFF769FD002C72
:1047E0000ED001360024A01C80B2295DFFF760FDC9
:1047F0000134B442F7D1002003E00120404200E040
:10480000002070BD70B5061C0D1C074B9C78E4B2EF
:10481000FFF7D2FDE9B2301CFFF7D2FF002C01D127
:10482000FFF7EAFD002070BD9002002010B50C1CBF
:10483000FFF7E8FF002803D1201CFFF701FE01E08D
:104840000120404210BDC04670B5061C0C1C002261
:10485000214B5A7021481021FCF776FC39200421A5
:10486000FFF76AFDC0208000FFF7D4FC851EEDB283
:10487000A5420DD8002D0BD00024194BE01880B2B2
:10488000FFF7C8FC30550134E3B29D42F5D811E082
:1048900039200021FFF750FD0F4B00221A70013222
:1048A0005A700E481021A0221203FCF733FC01209D
:1048B00040420FE039200021FFF73EFD064B002269
:1048C0001A7001325A7005481021A0221203FCF719
:1048D00021FC281C70BDC04690020020C0F00F4093
:1048E0000103000008B5C9B2FFF7AEFF08BDC0461E
:1048F00010B5041C0388002B03D0104A934204D047
:1049000018E00E4B2380012017E00120822914D1EA
:104910000B4B1B78002BF4D000F006F900F0A8F840
:104920008021FFF791FFC0B200F09CF8054B1B6996
:104930009847E6E700230380032010BDB30300007F
:104940009002002094D9000010B53120FFF79CFDA3
:10495000002821D0C4B2230705D501220F4B1A70BD
:104960000F4803F0A5FCE30711D52420FFF78CFDC9
:10497000C30709D5830603D50222084BDA7006E087
:104980000322064BDA7002E00022044BDA70054B7A
:104990001A6819680A431A6010BDC04690020020C8
:1049A000B0F0FF1FA0C0044008B5FFF7CDFF044BD7
:1049B000186804F053F880225205024B1A6008BDB3
:1049C000501F002004ED00E010B50A4B5C88002C5D
:1049D0000FD098883030302808DD3023054A08325F
:1049E0001119C95C995401339842F9DC0022014B3A
:1049F0005A8010BD98020020F0B583B00E4B1E788F
:104A00003022921B9F88D519802D11DC1C1C191C8B
:104A100008318919019007F034F9019B981B303057
:104A20006388064A916BC9183A1C07F02AF900E01E
:104A30000025281C03B0F0BD9802002018030020B8
:104A4000031C074A928800209A4207DB9BB2044964
:104A5000488818184880D31A8B8001207047C046B8
:104A600098020020014B98807047C04698020020B1
:104A700002484388C01838307047C046980200206A
:104A8000024B181C08301B78C01870479802002091
:104A9000014B98887047C04698020020044B1A7852
:104AA00030239B1ADBB2181E01D1014B9878704756
:104AB0009802002008B5FFF7F1FF024B9B88C01851
:104AC00080B208BD9802002038B5094B1D7800233C
:104AD00085420ADB041CFFF7EDFF00190023802844
:104AE00003DC281B024B18700123181C38BDC0467C
:104AF0009802002070B5094B191C343100221A802D
:104B000002338B42FBD10024054E064DA019291C0F
:104B100005F020FC0834202CF8D170BD741F002053
:104B2000541F0020BCD9000008B5064B00225A8053
:104B30009A8030321A703833034A9363FFF7DAFFF2
:104B400008BDC046980200201803002070B5061C5E
:104B50000D1CFFF7E9FF2C1C802D00D98024A5B285
:104B6000044B986B311C2A1C07F08BF8024B9C807D
:104B7000281C70BD180300209802002010B50C1CE2
:104B80000449342207F07DF8201C0349202207F055
:104B900078F810BD741F0020541F002010B5031CAE
:104BA0000C1C0548191C342207F06BF80348211C23
:104BB000202207F066F810BD741F0020541F00204B
:104BC0004000024BC15201207047C046741F0020B4
:104BD0004000014B185A7047741F002008B51A385E
:104BE000C000034BC01805F0B5FB012008BDC0464E
:104BF000541F00201A38C000014BC0187047C0462F
:104C0000541F002008B50248024905F0A9FB08BD61
:104C10005C1F0020BCD900007047C04610B5041CC2
:104C200001700223437002300549082207F029F879
:104C30000023A372E37223736373A373E37310BD42
:104C4000E4120020F0B58DB0544BDB79FF2B00D07F
:104C50009FE0534B1B78191C2831504A8A18527810
:104C6000002A00D095E04F4A0421117000215160C4
:104C70001C1C2C34043130334B4A1588AB4200DB0A
:104C800085E0464A9B185A78002A00D181E000202E
:104C9000424E371C07E0DB195A78002A03D1414BFA
:104CA0005860197075E01A78012A00D1181C0B1988
:104CB0009B195B78DA008B18D9B20B19AB42EADB8F
:104CC000384B58601970002861D0344B1B89002B79
:104CD0001BD1324B5B89002B17D1304B9B89002BAA
:104CE00013D12E4BDB89002B0FD12C4B1B8A002BB1
:104CF0000BD12A4B5B8A002B07D1284B9B8A002BB8
:104D000003D1264BDB8A002B43D02848FEF73AFC20
:104D1000244B9860002807D15968023123480022AB
:104D20000223FEF7FDFB32E01E4B5C680234FEF707
:104D30001FFC011C201C082206F094FF002821D033
:104D4000184EB06801A90B1C021C32CA32C332CA09
:104D500032C332CA32C312CA12C32024055DFEF721
:104D6000C3FB7368991C114800220223FEF7D8FB8D
:104D7000B060031C103305AA42CA42C307AA42CA44
:104D800042C30555074B9A6800212123D15405F0F1
:104D900015F90022044B1A800DB0F0BDEC12002072
:104DA00019F4FF1F54030020D8120020F412002031
:104DB000F8B5A64BDB79FF2B00D042E1A44B1B7862
:104DC000191C2C31A14A8A181279FF2A00D138E126
:104DD00028339E4A9B185B78002B00D031E19D4B15
:104DE00000225A6014321A70994B1878021C403213
:104DF000994B1B88081C9A4276DA944BD3185A7840
:104E0000002A00D11DE1934D904C05E08F4A9B187C
:104E10005A78002A00D114E11A78012A50D16B6027
:104E20002389002B1CD1894B5B89002B18D1874B20
:104E30009B89002B14D1854BDB89002B10D1834B30
:104E40001B8A002B0CD1814B5B8A002B08D17F4B36
:104E50009B8A002B04D17D4BDB8A002B00D1F0E034
:104E60007E48FEF78FFB7B4B9860002807D159687E
:104E700002317A4800220223FEF752FB20E0FEF7BF
:104E800077FB071C734B5E680236301C391C082206
:104E900006F0E8FE00280AD0381C311C082206F073
:104EA000F0FE6C4B9A6802212223D15408E0694B32
:104EB0009B6822229A5C002A02D102212232995454
:104EC000644E3778624B1B782C33191CDB195F4812
:104ED00018184278D200BA18D3B23370081CCB1815
:104EE0005D4A1288934291DB584BC018043004F09D
:104EF000E9FE584BD860002800D1A2E0534B1B8933
:104F0000002B1CD1514B5B89002B18D14F4B9B8937
:104F1000002B14D14D4BDB89002B10D14B4B1B8A3E
:104F2000002B0CD1494B5B8A002B08D1474B9B8A45
:104F3000002B04D1454BDB8A002B00D181E0474890
:104F400004F0C0FE002800D07BE0404B1A8B444B9D
:104F50009A422CD13D4B5B8B002B28D13B4B9B8B3A
:104F6000002B24D1394BDB8B002B20D1374B1B8CF2
:104F7000002B1CD1354B5A8C80235B009A4216D1F2
:104F8000DC3B324AD35CFF2B11D1131C1832191CA5
:104F9000083131C931C2096811602D4A12789A1856
:104FA0000833303213CA13C312681A6018E02D4850
:104FB00004F088FE274BDB68984242D1234B1A1C31
:104FC0001832191C083131C931C209681160204AF0
:104FD00012789A180833303213CA13C312681A6051
:104FE0001B4E00253570194C602323706570658059
:104FF00000232371282363713A22A271C532E27122
:10500000773AE25401330022E254E0220333E254BF
:10501000201C30300F4BD9680231D03A06F031FEF7
:10502000201C40300221FFF7F9FD337828331C198A
:105030006580FCF75FFCC04360805022064B1A80FD
:1050400002E00022044B1A80F8BDC046EC1200209A
:1050500019F4FF1F54030020D8120020F41200207E
:10506000FF02000004130020F0B557464E464546A7
:10507000E0B482B0944B1A78111C2C31934BC818B1
:105080000478DB79FF2B00D0FDE028328F4BD2185B
:105090005378002B00D0F6E00379FF2B00D1F2E02B
:1050A00040252540AA4604D0884B1B7EFF2B00D10B
:1050B000E9E0874B14221A7000225A6014270A1C58
:1050C0001432844B1B889C469A4224DA7F4BD318B7
:1050D0005A78002A00D1D6E0002201927B4D2E1C86
:1050E00008E09B195A78002A04D1794B019A5A603A
:1050F0001F70C8E01A78022A00D10193CB195B19FE
:105100005B78DA00BB18DFB2CB196345E9DB704B83
:10511000019A5A601F70043004F0D4FD6C4BD860C3
:10512000002800D0AFE0684B1B786848C0183030CA
:10513000FEF728FA664FB860FEF71AFA051CBE683B
:10514000002E00D19FE07F23221C9A439046604BA3
:105150005B689946002B00D199E09F1C381C291CE4
:10516000082206F07FFD2223F35C002B23D1281CAC
:10517000391C082206F085FD5346002B12D001226F
:105180002223F2540022023BF254341C1034524BBE
:10519000D868FA21890006F095F9011C201C05F059
:1051A000FFF802E002222223F254494B9A6821239D
:1051B0004146D1544BE0C7B2A2060FD4002F05D010
:1051C000012B60D102222133F2545CE04B46002BCC
:1051D00069D10DE04B46002B5ED0002749460231D5
:1051E000281C082206F04DFD5346002B13D002E088
:1051F0005346002B14D001222223F254341C1034C5
:10520000354BD868FA21890006F05CF9011C201C96
:1052100005F0C6F804E0002F02D002222223F25447
:105220002B4B9A682123D35C002B0BD04346002BD9
:1052300008D12A48FBF7C4FB254B1861002801D090
:10524000FBF798FB224B9A6821234146D154204B0F
:1052500098682830FEF7DEFB002814D01C4CA068AC
:105260002830FEF7D7FB1B4D2880A0682830FEF7BA
:10527000C9FB011C2A88154806F003FDA0682830E8
:10528000FEF7ACFB19E00022124B1A8015E0222336
:10529000F35C002BF7D003E05346002BC0D0AAE705
:1052A000A306A5D596E749460231281C082206F038
:1052B000E8FC5346002BB3D09DE702B01CBC9046DF
:1052C0009946A246F0BDC04619F4FF1FEC1200201B
:1052D00054030020D812002058210020F41200208E
:1052E000F8B5051C141C00224D4B1A704D4B602064
:1052F00018705A705A803A329A71C532DA710029A0
:1053000016D1FF311976FD3A5A7600225A839A83D4
:10531000DA831A84223200209854012001329854F2
:1053200001329954617B01329954E289DA8404E0B4
:105330003C481830102206F0A4FC394B1878031CA6
:105340002833384E9B1987221A7000275F702C3043
:10535000301880C0211C773A06F093FC3771201C6E
:1053600004F0B0FC00283FD1002D06D02D480830B5
:10537000291C102206F085FC04E02B48011C10318A
:1053800004F0C8FD274B1B89002B1FD1254B5B89DF
:10539000002B1BD1234B9B89002B17D1214BDB8981
:1053A000002B13D11F4B1B8A002B0FD11D4B5B8A87
:1053B000002B0BD11B4B9B8A002B07D1194BDB8A8F
:1053C000002B03D10022194B1A8027E0154B28220D
:1053D0005A71134A10784030C0180121FFF71EFCA3
:1053E0005022124B1A800EE00E4B00221A815A8175
:1053F0009A81DA811A825A829A82DA8218325A7132
:1054000028320A4B1A80064B1C782834054BE418C6
:1054100000236380FCF76EFAC0436080F8BDC0468D
:1054200019F4FF1FEC120020F4120020D812002003
:10543000F8B54F464646C0B4011C3C4B60221A707A
:1054400000225A705A803A329A71C532DA710028B5
:105450000CD1374A1A8300225A839A83DA831A843A
:105460005A849A840132FF32DA8404E02F481830DB
:10547000102206F006FC2F4C211C1031201C04F0D9
:1054800049FD2D4F3E78331C2833083C1B198622DA
:105490001A7000255D702C363619284B1B79337035
:1054A0007570E120C000FDF7EFFB70803878031CB9
:1054B0002C331B195D609D60214E382333803830BA
:1054C00000190121FFF7AAFB3388103333801D4BED
:1054D00098461C23424613703B7848339946A144B2
:1054E00005234A461370043B537055801648FDF758
:1054F000D1FB4B465860338808339BB23380424619
:105500001278083241460A701A1C283A1212227187
:10551000283B63713B7828331C196580FCF7EAF956
:10552000C04360800CBC90469946F8BDEC12002048
:10553000FF020000F412002019F4FF1F5821002080
:10554000D812002054030020DC05000010B5064CE2
:10555000201CFBF71BFC201C0C30FBF717FC201C4D
:105560001830FBF713FC10BDC0F0FF1F10B503048B
:105570009B0F9B00064AD318996D0C68FF230340CC
:10558000C004C20E9340181C2043086010BDC046E2
:10559000E4D50000002807D18C4B19688C4A0A40DA
:1055A0001A601A681A600FE180235B0298420AD1E0
:1055B000864B1968864A0A401A601A6880210903D6
:1055C0000A431A6000E1C0231B0398420AD17F4BB3
:1055D00019687F4A0A401A601A68C02109030A4301
:1055E0001A60F1E0CC231B06984205D1794A136872
:1055F00003218B431360E7E0CD231B06984209D1BA
:10560000744B1A6803218A431A60196801220A43FD
:105610001A60D9E0CE231B06984209D16D4B1A6857
:1056200003218A431A60196802220A431A60CBE0F8
:10563000CF231B06984208D1664B19680322914379
:10564000196019680A431A60BEE08023DB0498429F
:105650000ED1614B1968614A0A401A601968604AA4
:105660000A401A601A688021C9040A431A60ABE034
:10567000A4231B0698420FD1574B1A688021490278
:105680000A431A601968564A0A401A601A6880214B
:10569000C9040A431A6097E080231B0598420AD187
:1056A0004D4B19684E4A0A401A601A688021090554
:1056B0000A431A6088E0C0231B0598420AD1464B72
:1056C0001968474A0A401A601A68C02109050A4346
:1056D0001A6079E080235B0498420ED13E4B196832
:1056E0003E4A0A401A6019683E4A0A401A601A681F
:1056F000802149040A431A6066E0A1231B069842F0
:105700000FD1354B1A68802149020A431A60196883
:10571000344A0A401A601A68802149040A431A6010
:1057200052E080239B0498420AD12B4B19682D4AE2
:105730000A401A601A68802189040A431A6043E00B
:10574000C0239B0498420AD1234B1968254A0A407A
:105750001A601A68C02189040A431A6034E0B02331
:105760001B06984205D11C4A11681F4B0B40136061
:105770002AE01E4B98420AD1174B1968174A0A4073
:105780001A601A688021C9020A431A601CE0184B8B
:1057900098420BD1104B1A68802149020A431A60C3
:1057A0001A688021C9020A431A600DE0114B984221
:1057B00005D1114A136802218B43136004E00E4A9D
:1057C000116802230B4313607047C0460070044009
:1057D000FFFFF3FF08B0034004800440FFFFFEFF1B
:1057E000FFFFFFF3FFFFFFFCFFFFFBFF00070C00C5
:1057F0000407080001070C000081044008B50648B2
:10580000FBF70AFD054B01221A7000225A70AA32DA
:105810009A70DA7008BDC046615900006803002024
:1058200010B5134CA1790220FFF7CAF9A379112B07
:1058300006D10F4B1A8D598D914214DD111C12E0C7
:10584000062B06D10A4B1A8D598D91420BDD111C86
:1058500009E000213A2B06D1054B2822995C090268
:1058600001329B5C194389B20120FFF7A9F910BDF1
:10587000EC12002070B515780C7A02236B409C4224
:105880001FD14C7A53789C421BD18C7A93789C42DE
:1058900017D1CC7AD3789C4213D10C7B13799C42DC
:1058A0000FD14C7B53799C420BD18C7B93799C42DA
:1058B00007D1CC7BD3799C4203D103238340D8B258
:1058C00024E0051C0B89002B14D14A89FF231B02FD
:1058D0009A420FD18B89FE2B0CD10D4EF4680E31FC
:1058E000201C022206F0CDF90234F4600223AB4002
:1058F000D8B20BE0064EF4680831201C082206F0EE
:10590000C0F90834F4600120A840C0B270BDC046A0
:105910006803002008B5084B1A780023012A09D132
:10592000011C05480230073206F09CF900230028CC
:1059300000D1014B181C08BD6803002008B5011CEC
:105940001B20FFF74BF9044B9B6804480021984744
:10595000FFF762F908BDC0467CD600001D6000005C
:10596000F0B54F464646C0B483B0051CB14C002389
:1059700023746374FFF7D8F8FFF77AF860610920A1
:105980000421FFF71DF9A369002B01D0FFF748FFA1
:10599000A94B9B79062B0DD12F33A74AD35CDA078D
:1059A00000D529E33F221340102B03D00D20022104
:1059B000FFF706F9002D04D16846A04904F0CAFC9F
:1059C00003E06846291C04F0C5FC9A4B5D69AA1CDB
:1059D000DA605C7C02342C19002323709848FFF7AE
:1059E00099FF002804D19748FFF794FF002804D0BE
:1059F0000335904BDD60802500E000258E4B187844
:105A0000597803010A091343DBB29A019B08134337
:105A1000DBB2DFB20A0712D1874A5288002A0ED1C0
:105A2000030705D10F2399437826002900D1DDE231
:105A3000804AD3681F700133D3607026D6E2020714
:105A400015D10F22081C9043021E10D1794FFE6819
:105A50003F329343303A11400B433370701C7A4904
:105A60000D3A06F00EF90336FE606826BEE2714B71
:105A70009846DE68301C7049042206F002F937703F
:105A800004364346DE606026B0E204231E4304E091
:105A90006849CA6813700132CA60674BDB79402BD2
:105AA00005D0FF2B06D0012B07D11E430AE00223AD
:105AB0001E4307E003231E4304E05E49CA681370D7
:105AC0000132CA605C4B1B89002B1ED15A4B5B898B
:105AD000002B1AD1584B9B89002B16D1564BDB89D2
:105AE000002B12D1544B1B8A002B0ED1524B5B8AD8
:105AF000002B0AD1504B9B8A002B06D14E4BDB8AE0
:105B0000002B02D140331D4339E04E48FFF702FF1E
:105B1000484BD86100280ED043781B0122781343EC
:105B2000237004204749494AFFF7A4FE40256D42EF
:105B30002843C5B223E0404B1A89454B9A4213D102
:105B40003D4B5B8B002B0FD13B4B9B8B002B0BD129
:105B5000394BDB8B002B07D104203A493B4AFFF736
:105B600089FE0543EDB20AE0324B9846DF68381CE7
:105B70003449102206F085F810374346DF602E4B7B
:105B80001B7EFF2B00D08BE008242C432A4B5B7E2E
:105B9000022B29D1284A528B002A00D076E0264ACF
:105BA000928B002A00D02CE2234AD28B002A23D1E8
:105BB000214A128C002A1FD11F4A528C002A1BD165
:105BC0001D4A928C002A17D126321B498A5C002A72
:105BD00012D10B242C43174AD36827211648415C65
:105BE00019700133D36093E0134A528B002A4DD1D0
:105BF000114A928B002A49D10F4AD28B002A2BD10D
:105C00000D4A128C002A27D10B4A528C002A23D12C
:105C1000243209498A5C002A1ED10A242C43054FEC
:105C2000FD682B70681C0B49033206F02AF8043516
:105C3000FD606DE068030020EC120020BCD900007C
:105C400004130020F4120020EE120020E4120020C1
:105C5000FE80000011130020D44AD28B002A15D1F7
:105C6000D24A128C002A11D12232D0498A5C002AF1
:105C70000CD109242C43CE4FFD682B70681CCD49F4
:105C8000053205F0FEFF0635FD6041E0C84FFD68B6
:105C9000281CC949102205F0F4FF1035FD6037E0DB
:105CA000C548FFF737FEC24BD86100280DD004234A
:105CB0001D4322784378134323700020BE496A466F
:105CC000FFF7D8FD2843C4B222E0B84B1A8BBB4B78
:105CD0009A4213D1B54B5B8B002B0FD1B34B9B8BEF
:105CE000002B0BD1B14BDB8B002B07D10020B2492D
:105CF0006A46FFF7BFFD0543ECB209E0AC4FFC6814
:105D0000201CAD49102205F0BCFF1034FC602C1C97
:105D10002822A74B1A74A54B9B79112B6ED1A34B4C
:105D20001B8D1A021B0A13439BB20F22191C9143AD
:105D3000A34A91421BD19D4A528D1102120A0A4375
:105D4000A0490A409E498A4211D19948C268F3236A
:105D50001370964D6B8D1B0A5033191C2B8D1B0A2B
:105D600050331B01CB1853700232C2603AE08F4AA5
:105D7000528D120292B2F02109028A4211D18C4F47
:105D8000FD68F1232B70681C8F4B9846191C02226A
:105D900005F077FF43465B881B0AEB700435FD6016
:105DA00020E0FF229343F022120293420FD1804F52
:105DB000FD68F2232B707D490B8D1B0A6B70A81CAC
:105DC0002A31022205F05DFF0435FD600AE0784FBC
:105DD000FD68F0232B70681C7B49042205F051FFFD
