:100000005829002051040000490400004D0400005C
:1000100049040000490400004904000000000000F9
:100020000000000000000000000000002D7600002D
:100030004904000000000000957500007D75000077
:10004000510400005104000051040000510400005C
:1000500000000000510400005104000051040000A1
:10006000510400005104000051040000510400003C
:1000700075A20000A5A20000D5A200005104000056
:10008000510400005104000051040000510400001C
:100090005104000051040000510400000000000061
:1000A00051040000510400005104000051040000FC
:1000B00051040000000000007D10000041490000D4
:1000C0000000000000000000000000000000000030
:1000D0000000000000000000000000000000000020
:1000E0000000000000000000000000000000000010
:1000F0000000000000000000000000000000000000
:10040000FFFFFFFFFFFFFFFFFFFFFFFFFEFFFFFFFD
:1004100008B5E1204002002109F08EFE08BDC0466B
:1004200010B5041C0548211C09F056FE044B1A782F
:1004300004498C5401321A7010BDC04600A0064019
:1004400028F2FF1FEC11002072B6FEE772B6FEE73D
:1004500008B5134B134A9A420DD2134A134B104856
:100460000330C01A800801308000043BC01802CA63
:1004700002C38342FBD10E4B0E4A9A420CD20E4B62
:100480000B490331C91A890801318900043BC91895
:10049000002204C38B42FCD103F090FA08BDC04691
:1004A00024F2FF1F00F0FF1FBCDA000004F0FF1F62
:1004B000D827002028F2FF1F2CF2FF1F10B50E488E
:1004C0000E4910220BF04CFC002811D10C480BF007
:1004D0007FFC0A4C201C07F0A9FC0A480BF078FCB2
:1004E000201C103007F0A2FC0A2000F087F801E081
:1004F00009F0D4F810BDC0462CF2FF1F0C130020E9
:1005000088D00000BCD0000008B50020FFF780FFB5
:100510000348002107F006FE024809F0B9F808BDBB
:1005200068F1FF1F2905000070B584B02A4B1B78C5
:10053000212B21D1284C617828480BF049FC00225E
:10054000274B1A806378502B3CD1002300930193F2
:10055000029303936846234908220BF010FC2248BB
:100560000BF036FC684607F061FC0A2000F046F804
:10057000684608F035FD25E03F2B23D1164C617805
:100580001A480BF025FC63784D2B18D1124A212311
:100590001370174B02321E1C083616480F251978A7
:1005A0000C09045D14702940415C51700133023222
:1005B000B342F4D112220A4B1A8009F06FF80022DC
:1005C000074B1A800C4A044B0833111C31CB31C144
:1005D0001B680B6004B070BD04130020C4D0000081
:1005E000F012002006130020ECD00000FCD0000028
:1005F000FC1200201CD100002CF2FF1F10B5041CBF
:100600000C4B1B7C002B08D1C020FFF709FF0D20ED
:10061000FFF706FF0122074B1A74E0B2FFF700FF55
:100620000A2C05D1C020FFF7FBFE0022014B1A74F3
:10063000201C10BD2CF2FF1FF0B557464E46454614
:10064000E0B4051C8A46171C114807F097FF041EEA
:1006500018D00F4A9146042291440D4B9846012D23
:1006600004D8484607F0CAFF031C01E04646B368B9
:10067000281C51463A1C6668B047201C07F0CAFF88
:10068000041EECD11CBC90469946A246F0BDC04663
:1006900040F2FF1F38B50C4D281C07F007FC0B4C2F
:1006A000201C0C3007F066FF281C0C30084903F0B2
:1006B000BDFA281C1C3007F0F9FB201D07F05AFF7B
:1006C000201C07F057FF38BD00F0FF1F40F2FF1F4E
:1006D0007508000008B5002807D0416804480C30B0
:1006E00003F0DEFB02F032FF00E0002008BDC04650
:1006F00000F0FF1F08B502480C3007F03FFF08BDAF
:1007000040F2FF1F08B5002802D007F083FF00E089
:10071000002008BD014B98687047C04640F2FF1F9B
:10072000F8B54F464646C0B48046FFF7E3FF041EC7
:100730002CD00026B1462427E55DB5420BD3211C01
:100740000831EA0840460BF00BFB002803D1802D4E
:1007500007D02E1CA146201CFFF7D4FF041EEBD1AE
:1007600000E0A1464B46002B12D00C480C3007F09D
:1007700005FF48450CD0094C0C34201C494607F0B5
:1007800009FF201C494607F01FFF01E0002399469E
:1007900048460CBC90469946F8BDC04640F2FF1F43
:1007A00070B5051E46D04268002A43D022480C305E
:1007B000291C07F0EFFE6B68586807F0DFFE041E87
:1007C00033D04368AB4207D0201C07F023FF041E40
:1007D0002BD04268AA42F7D16B685868211C07F0F9
:1007E000D9FE6B68586807F0C9FE002805D16B6810
:1007F000596812480C3003F023FB104E301C291CA2
:1008000007F086FB301C2830211C07F081FB0A4BC7
:100810009A68013A9A60281CFFF75CFF021C291CA9
:1008200008310320FFF708FF04E0281C083007F018
:10083000FDFAD1E770BDC04640F2FF1F00F0FF1F78
:1008400010B5041E13D04068002810D007F096FEA3
:10085000002807D04068FFF7A3FF606807F08EFE0E
:100860000028F7D102480C30211C03F0E9FA10BD32
:1008700000F0FF1F08B5FFF7E3FF08BDF8B54F46CE
:100880004646C0B4071C8946161C101C02F062FEC6
:10089000804600286ED0381CFFF742FF041E0CD0A3
:1008A000FFF718FF011E05D0301C10220BF058FA7C
:1008B000002862D0201CFFF773FFFFF72BFF0428EE
:1008C00005D130480C3007F05BFEFFF769FF2E487A
:1008D0000C30414603F09CFA051E0BD12A480C301F
:1008E000414603F0EFF9051E46D06860002303601F
:1008F00007F040FE244807F0E9FA041E3DD02148E5
:100900000C30211C07F060FE1F48283007F0DEFA8B
:10091000011E05D11C48211C07F0FAFA00242CE026
:100920004460686807F05AFE6560164B9A680132A9
:100930009A60201C0830391C10220BF020FA242366
:100940004A46E254002323766376A376E376237740
:100950006377A377E377251C20352B7001352B7047
:1009600001352B7001352B700220391C321CFFF72A
:1009700063FE02E0002400E00024201C0CBC904632
:100980009946F8BD40F2FF1F00F0FF1F10B5041C90
:100990000F48043007F0F2FD002818D0A04212D111
:1009A00001E084420FD10A480430211C07F0F2FD17
:1009B00008481C30211C07F0ABFA221D0120111C35
:1009C000FFF73AFE03E007F025FE0028E9D110BD4D
:1009D00040F2FF1F00F0FF1F38B5051C0948043026
:1009E00007F0CCFD041E0BD0201D291C10220BF09B
:1009F000B7F9002804D0201C07F00CFE041EF3D128
:100A0000201C38BD40F2FF1F70B5051C0E1CFFF7FF
:100A1000E3FF041E0AD111481C3007F057FA041EE8
:100A20001AD00F480430211C07F0CEFD201D291CD0
:100A300010220BF0A4F9002E07D0201C1430311C1A
:100A400009F0F0FB0023237701E001232377002046
:100A5000291C2A1CFFF7F0FD201C70BD00F0FF1FB1
:100A600040F2FF1F70B50C48043007F087FD041EEC
:100A70000FD02226251D281C02F03EFD002802D0A2
:100A8000835D002B06D1201C07F0C4FD041EF1D1AC
:100A900000E00025281C70BD40F2FF1F38B510484B
:100AA000043007F06BFD041E18D00D4D0435237F74
:100AB000002B0DD1201C143009F0BCFB002807D0FE
:100AC000201CFFF763FF281C07F058FD041C03E0FF
:100AD000201C07F09FFD041C002CE8D138BDC04647
:100AE00040F2FF1F0B2805D11B4B196880220A43D7
:100AF0001A6030E00E2806D1174B196880221202C6
:100B00000A431A6027E00F2805D1144B1968022206
:100B10000A431A601FE0031C103B1F2B0DD8FF2255
:100B20001040021C103A52090D49521892001F2120
:100B30000B400121994011600DE00A4B984203D10E
:100B4000C022094B1A6006E0084B984203D1C0222C
:100B50009203054B1A60704724ED00E010E000E0BE
:100B6000403800381617000000E100E0242500009E
:100B700010B5041C8260C3600AF0B2FB20606160A3
:100B800010BDC04630B5026843688468C568121954
:100B90006B410260436030BD10B5041C0AF0A0FB3D
:100BA0002060616010BDC04670B5061C0AF098FB5D
:100BB0000122002334687568121BAB4112184B41A7
:100BC0000120F5689D4204D302D1B368934200D35B
:100BD000002070BDF0B5474680B484B023490B1C9B
:100BE0000833684670CB70C01B680360CE79204B19
:100BF0001B78002B17D03A228A711E480288D21A1D
:100C000092B20280101C283800120871101C28387B
:100C10004871081C2C302C3359182C3A0BF0B8F8BA
:100C20000022134B1A70144807F0A8FC041E15D0BC
:100C30000F4B98460D4F6568002D0AD043461A7831
:100C40003832D2190B4B1B882C3B9BB26846311CA7
:100C5000A847201C07F0DEFC041EECD10022054B47
:100C60001A8004B004BC9046F0BDC04604130020B6
:100C700021F4FF1FF01200208CF3FF1FF8B52C4B5E
:100C80002C4A1279DA711B7EFF2B0ED12848031CE7
:100C90001833021C083232CA32C312681A60083094
:100CA000011C103109F076F815E0234C204B221D71
:100CB000191C0831C1C9C1C2086810601A1C083269
:100CC000191C1831E0C9E0C2096811601833221DEF
:100CD00032CA32C31860194B1B78002B18D0144944
:100CE0003A228A7116480288D21A92B20280101CE7
:100CF000283800120871101C28384871081C2C3044
:100D00002C3359182C3A0BF043F800220B4B1A7075
:100D10000A4B1C782834064BE418812323700023E7
:100D20006370638000F0B6FEC0436080F8BDC046CB
:100D300004130020702100208CF3FF1F21F4FF1FFB
:100D4000F012002038B5041C0D1C1048143007F0B8
:100D500015FC002817D00379A34204D143799D42A2
:100D600006D0FF2B04D007F055FC0028F3D10AE091
:100D70000123002808D08368002B02D09847002365
:100D800002E0012300E00123181C38BD8CF3FF1F93
:100D900008B5011C0248143007F020FC08BDC0460D
:100DA0008CF3FF1FF8B54F464646C0B4051C0E1C19
:100DB000171C574B1B78002B08D02833554AD35C9F
:100DC0003A2B10D10022544B1A809DE0514B9B7955
:100DD0003A2B08D128234F4AD35C7F2B03D800221B
:100DE0004D4B1A8090E00022494B1A704B4B043354
:100DF000484C183407CC07C324681C60464B1B883A
:100E000030339BB2A022D200934202D8424A1380D0
:100E100003E0A022D200404B1A804148041C303C21
:100E20003D4B1A88303A211C0AF0B2FF6023237030
:100E30000023637063803A23A3713A4B1B79E371FB
:100E40002389002B1FD1334B5B89002B1BD1314BE6
:100E50009B89002B17D12F4BDB89002B13D12D4BF6
:100E60001B8A002B0FD12B4B5B8A002B0BD1294BFC
:100E70009B8A002B07D1274BDB8A002B03D1002252
:100E8000254B1A8040E0234C231C1833083407CC30
:100E900007C324681C60214B1B79FF2B0DD1042D47
:100EA00007D1022E05D120481C49043108F072FFF9
:100EB00008E00022184B1A8026E01B48174904312D
:100EC00008F068FF124B984618788146031C2833B7
:100ED000104C1B191D705E70381C01F0BDFE4B4696
:100EE0002C33E0500C4B1B881A1C283A121222712A
:100EF000283B637141460B7828331C19002363801B
:100F000000F0C8FDC04360800CBC90469946F8BD17
:100F100021F4FF1F04130020F01200208CF3FF1FA8
:100F200034130020702100200C130020F8B54F4628
:100F30004646C0B48446894690461D1C184C602322
:100F400023700026667066803A23A371154B1B79C7
:100F5000E3712B1D1B1223712B1D6371271C183786
:100F6000381C614610220AF00AFF201C0830391C88
:100F700008F010FF0C4B1B7828331C194B462370CC
:100F800043466370668000F085FDC04360802C3569
:100F9000064B1D8000F08CF90CBC90469946F8BDBC
:100FA000041300207021002021F4FF1FF012002004
:100FB00010B5044C201CFFF7EBFE201C0C30FFF793
:100FC000E7FE10BD34F0FF1F00B583B002F04AF910
:100FD000002300930D480E49C0221F2301F0E8FFB3
:100FE000002800D0FEE7002300930A480A49A02207
:100FF000D200022301F0DCFF002800D0FEE702F05F
:101000000DFA002800D0FEE703B000BD71770000A4
:1010100030D10000353700003CD10000031C0D4AE0
:1010200090420ED00C4A90420DD00C4A90420CD007
:101030000B4A90420BD000200A4A934208D10A483A
:1010400006E00A4804E00A4802E00A4800E00A48CC
:101050007047C04600F00F4040F00F4080F00F4056
:10106000C0F00F4000F10F4000D004400090044059
:1010700000A0044000B0044000C00440F0B5474662
:1010800080B4124B1F681A683A431A60104C261C31
:101090004036F0252D063B041B0C984623681A0C9D
:1010A0001204AA420BD14246134208D063689C4600
:1010B000002B04D00020391C00220023E047083414
:1010C000B442EBD104BC9046F0BDC046A0900440B1
:1010D000A4F3FF1F10B5436901248C40A34343616F
:1010E00043698A40111C1943416110BDF0B5474660
:1010F00080B480460E1C171C002401252B1CA34025
:101100001E4204D04046211C3A1CFFF7E3FF013485
:10111000202CF3D104BC9046F0BDC046F8B50D1CA0
:10112000161CFFF77BFF00230121084F2C1CDC401D
:10113000214205D002683A400260046834430460EA
:1011400001330430202BF1D1F8BDC046FFFF00FF72
:1011500038B50C1CFFF762FF00230121064D221C4D
:10116000DA40114202D002682A40026001330430A2
:10117000202BF4D138BDC046FFFF00FF416070470F
:1011800081607047F8B50D1C161CFFF747FF002360
:10119000012140272C1CDC40214205D00268BA43C3
:1011A000026004683443046001330430202BF1D121
:1011B000F8BDC04610B503051B0E9B00040B0F22A3
:1011C0001440A400064961585B181C680549214079
:1011D00019601968104000020843186010BDC0462D
:1011E00044D10000FFF8FFFF08B5044802F086FF75
:1011F000002802D0014802F079FF08BDE8F3FF1F84
:1012000008B5054B9B69002B01D0984703E00348C4
:1012100002F04AFA002008BDE8F3FF1F58D1000091
:10122000014B98617047C046E8F3FF1F08B5104BAB
:101230000021312299549B8B002B10D10C4B1C3375
:1012400001E00B4B243318800A4A12685A6000F000
:101250009DFB0CE002213123054AD15407E0044BE9
:101260000121312299549B8C002BF3D1E9E708BD71
:10127000E8F3FF1F8C0A0020024B1B688362C162E7
:101280007047C0468C0A002008B50548022100229C
:1012900006F03EFF0022034B1A80034B1A7008BD74
:1012A0004CF0FF1FF012002021F4FF1F000000008F
:1012B00070B5834B1B88002B00D1F9E0A022D2002F
:1012C000934206D97F4802F0EFF900227C4B1A8046
:1012D000EEE07D4B1B8B002B22D17B4B5B8B002BDD
:1012E0001ED1794B9B8B002B1AD1774BDB8B002BBC
:1012F00016D1754B1B8C002B12D1734B5B8C002BC2
:101300000ED1714B9B8C002B0AD16F4BDB8C002BC9
:1013100006D16E4802F0C8F90022694B1A80C7E076
:10132000694B1B7EFF2B00D1BAE0694808F0EAFB4D
:10133000002821D16648FFF7F3F9041E14D1FFF706
:1013400091FB051E19D1634B1B78002B05D05E4C19
:101350002823E55C00F0CCFAA5715F4B5B689847E9
:101360000022574B1A80A3E0FFF7B4F9051E04D101
:10137000201CFFF715FA9BE0554D281C02F0BCF825
:10138000041E40D1281C00210022002302F082F814
:10139000041E03D100224A4B1A8089E0051C28351F
:1013A000281C464B444A02F0BBFA00280BD0281CEC
:1013B00002F0EAFA424E328843490AF0E0FC3188F2
:1013C000281C02F0F3FA454808F0BCFB002805D0C1
:1013D00042480021221C03F051FF04E000200021BC
:1013E000221C03F04BFF251C18353D4B1869FA21D0
:1013F000890009F0BDFF011C281C08F013FF012221
:101400002023E25454E02223C35C002B17D128345C
:10141000201C2A4B284A02F083FA00280BD0201CFB
:1014200002F0B2FA264D2A8827490AF0A8FC29883A
:10143000201C02F0BBFA0022214B1A8038E0022B5C
:1014400009D103222223C2541030052108F0EAFEFC
:1014500000222023E254201C02F044F8FFF7D0FEC3
:10146000251C2835281C02F097FA002814D0281CC7
:1014700002F092FA124E3080281C02F085FA011C0C
:10148000328811480AF07BFC281C02F069FA201C03
:1014900002F028F8FFF7B4FE0022094B1A8007E09B
:1014A0000020FFF7ADFE0022054B1A80094B1A7091
:1014B00070BDC046C046C046A00F0000000000003E
:1014C000F01200209CD1000004130020C0D10000C5
:1014D0001C13002021F4FF1F80D000000C130020FB
:1014E00070210020C046C046F8B54F464646C0B4FD
:1014F000041C151C0388002B04D0634A934200D0BF
:10150000B7E01BE0614D0023AB83AB8402223223A2
:10151000EA545F4B1B68EB6206F03EFD5D4B1870B2
:10152000281C584B564A02F0D1FD00F0C5F95A4B21
:101530001B689847544B238001209DE002297DD0F1
:1015400002D800296ED0F5E7872902D08829F1D189
:1015500024E04E4E00223323F2541C3691464B4B6E
:10156000984633277268954206D1308800F0EEF92C
:101570004B4633804A46726008364246D35D01339B
:10158000DBB2D355012BEDD9444B9B6A9D42D1D19F
:10159000424B00229A6225215A54CBE73B4B9D4295
:1015A00027D1181C02F0AAFD002822D000213323E5
:1015B000364AD154394E2527F35D002B11D03348DC
:1015C00002F094FD3323314AD35C5A00D3181B0137
:1015D000324A9A18324B1A60022000F061FAFFF783
:1015E00067FE2A4933228B5C0133DBB28B54002B1C
:1015F000E2D02C4B9D4208D1181C02F07FFD002840
:1016000003D000F0E1F9FFF753FE274B9D4291D143
:10161000181C02F073FD00288CD008F053FCFFF773
:1016200047FE87E7002D85D01D4B1D60032000F08D
:1016300037FAFFF73DFEFFF7D7FD7BE71B4B1B8813
:10164000002B00D176E71A4B9B79062B06D1352368
:10165000174AD35C9A0701D5FFF7C6FD012000F0B9
:101660001FFA124B1B88002B00D163E7FFF720FE07
:1016700060E70023038003200CBC90469946F8BD28
:10168000F4010000000000003A030000E8F3FF1F2F
:101690008C0A0020EC12002080D0000014170020DB
:1016A000101700205017002060230020F0120020A7
:1016B00004130020C046C04610B5194B1C68194BD6
:1016C0001B785A0623D5184B002134229954228ABC
:1016D0009B8B934203D1144B1B6A002B09D1124BF5
:1016E0009B8C93420DD1104B9B6A0120002B01D1A2
:1016F00007E0002034220C498854A3620023E362EF
:1017000003E002213423084AD154FFF76DFDA06A9B
:10171000002804D0054B1978E26A06F0F9FC10BDE8
:101720001017002004170020E8F3FF1FEC12002020
:1017300030B5013A8A18914214D20B1C1C7824024D
:101740005D786419A4B2001980B2844201D90130D5
:1017500080B202339A42F1D8CB43D3185B080133ED
:101760005B00C918914207D10B781B02181880B290
:10177000834201D9013080B230BDC046F8B5294B53
:1017800002221A705E78301C2830274BC3185C7810
:10179000E400083402233F273BE01918224A891845
:1017A0000A78012A07D0002A02D0632A0FD107E065
:1017B0000133DBB22DE04A7802329B18DBB228E01D
:1017C0004A7802329B18174A1370002028E0BA4367
:1017D000D5B2802D04D0C02D09D0402A15D102E009
:1017E000104A137009E00F4A1370012018E00D4AE7
:1017F00013700D4A127EFF2A11D02836F2180420E9
:101800000221FFF7CFFA02200AE04A7802329B1841
:10181000DBB2A342C1DB034A1370002000E00120C9
:10182000F8BDC04620F4FF1F0413002070B5C47833
:101830000C19E4B2144BDC700D0A8278AA18D2B2EB
:101840009A7046785E7000781870954206D9013615
:10185000F6B25E70002E01D101301870C9B2A142FB
:1018600010DD0132D2B2084B9A70002A0AD11A1C3C
:101870005B780133DBB25370002B03D1131C127859
:1018800001321A7070BDC046F812002010B5011C5C
:10189000074C20681430FFF7C9FF2368054A117808
:1018A00019755178597591789975D278DA7510BD96
:1018B00010170020F812002008B508F055FBFFF7BC
:1018C00077FB03F00FFE074B00221A805A80252376
:1018D000054A0021D154054B01229A708022D20082
:1018E0009A8008BD481700201417002020F4FF1F1D
:1018F00070B5134B5C78002C21D0124B1D88231C33
:1019000028339D4205DA00230D4A53700D4A138097
:1019100015E00D48061C283E01192A1C283A121B06
:101920000AF036FA2C1BA4B2064B1C80231C283B61
:101930001B123371283C74710022014B5A7070BD28
:1019400020F4FF1FF01200202C13002000220D4B6A
:101950009A700D4B1B8883420AD100E0012252008D
:101960000021094BD1520BE00222064B9A7007E08E
:101970000122044B9A70044B5B888342F4D1EDE75B
:101980007047C04620F4FF1F4817002000220C4B70
:101990009A700C4B1B88002B09D100E001225200E9
:1019A000084BD0520BE00222054B9A7007E001224F
:1019B000034B9A70034B5B88002BF4D1EEE7704722
:1019C00020F4FF1F4817002038B50022114B1A7071
:1019D000114802F0B9FB114B9B79980718D50022EA
:1019E0000F4B1A800D4A002353700E4908320B1C0E
:1019F00031CA31C332CA32C313CA13C312681A6060
:101A0000032001210022FFF7CDF9074B00221A70B5
:101A100038BDC046441700205017002020F4FF1F97
:101A2000F012002004130020041700200302000A13
:101A3000184380B27047C04670B582B00F4B5E78D5
:101A40000F4C23791B029B1B62799B189BB26D463E
:101A5000EB80EB88C01880B2211C08312022FFF7F0
:101A600067FEEA8828363119FFF762FE002802D0A7
:101A7000FFF7DCFF00E0034802B070BD20F4FF1F59
:101A800004130020FFFF000008B50620FFF7D4FF75
:101A900008BDC04608B53A20FFF7CEFF08BDC046D6
:101AA000F0B5474680B4BB4B1C68BB4BBB4A1360C8
:101AB000BB4A136003281BD12523E35C0F2213408C
:101AC000032B0BD1A38B002B01D001F09BF8082234
:101AD000B44B1A70FFF7F0FD00F04CFF022B01D061
:101AE00001F090F800213523AF4AD15400F037FDC2
:101AF000022800D085E00023AC4A1380AC4A138052
:101B0000AC4AD37A0133DBB2D372002B0FD1937A74
:101B10000133DBB29372002B09D1537A0133DBB26C
:101B20005372002B03D1131C127A01321A7225232F
:101B3000E35C072B01D0052B0DD12622A35C0133DA
:101B4000DBB2A354782B01D001F05CF800222523EE
:101B5000E25401F057F8002B01D101F053F8A28BA9
:101B6000002A41D02621625C501E6054002A01D018
:101B700001F048F82722A25C082A04D0591E012946
:101B80000FD8052A0DD100222523E2548022854B4F
:101B90001A70FFF791FD14213523834AD15400F0C8
:101BA000CEFF3021042A02D803219140C9B2262059
:101BB00021540132272162540F221340DAB2082A3D
:101BC00001D901F01FF89B007B4AD3589F460021A2
:101BD0003523754AD15400F0C2FC0422714B1A70AF
:101BE000FFF76AFD00F000FF0F221340032B01D026
:101BF00001F008F808226B4B1A70FFF75DFD00F04A
:101C0000B9FE694B1B780F229343602B04D06B48BD
:101C100001F04AFD00F0F6FF634B1A795B79100280
:101C2000C0186249098888420ADC283312029B18CE
:101C30005E490B805C4B1B7AFF2B06D100F0E2FF64
:101C40005F4801F031FD00F0DDFF5E4B5E4A13603E
:101C500000225E494A7057490A731B78002B1AD13B
:101C600001220A73FFF78AFD012801D100F0CAFFA3
:101C7000002803D002280ED100F0C0FF534B597842
:101C8000081C2830484A82184F48026008315278B0
:101C9000D200891859704E4807F054FF002800D030
:101CA000F9E04B4807F0FEFF002800D0F3E03E4B80
:101CB0001B7EFF2B00D18FE03B4A118B454A91429E
:101CC00000D189E0384A1189424A914200D18AE024
:101CD00000291DD1344B5B89002B19D1324B9B89D4
:101CE000002B15D1304BDB89002B11D12E4B1B8AD9
:101CF000002B0DD12C4B5B8A002B09D12A4B9B8AE0
:101D0000002B05D1284BDB8A002B01D100F07AFF94
:101D1000254B1B8B002B1FD1234B5B8B002B1BD127
:101D2000214B9B8B002B17D11F4BDB8B002B13D12F
:101D30001D4B1B8C002B0FD11B4B5B8C002B0BD135
:101D4000194B9B8C002B07D1174BDA8C80235B003F
:101D50009A4201D100F056FF144B1A88A023DB00F1
:101D60009A4206D9022000211A1CFFF71BF800F046
:101D700045FF0D4BDB79012B06D8032000210A1CFF
:101D8000FFF710F800F03AFF013B074AD37100F06B
:101D900035FFC04610170020401300200C1700200C
:101DA000F41200200417002004130020F012002079
:101DB0006817002020F8FF1F04D2000044D3000061
:101DC0005CD300000A1300200817002020F4FF1F36
:101DD0001C130020FE800000CB4A1189CB4A91429F
:101DE00001D000F00FFFC84A1289002A1DD1C64A4F
:101DF0005289002A19D1C44A9289002A15D1C24AAF
:101E0000D289002A11D1C04A128A002A0DD1BE4AB5
:101E1000528A002A09D1BC4A928A002A05D1BA4ABC
:101E2000D28A002A01D100F0EDFEB74A128B002AB7
:101E30001FD1B54A528B002A1BD1B34A928B002A7C
:101E400017D1B14AD28B002A13D1AF4A128C002A83
:101E50000FD1AD4A528C002A0BD1AB4A928C002A8A
:101E600007D1A94AD18C80225200914201D100F0C1
:101E7000C9FEFF2B01D100F0C5FEA54807F042FEC8
:101E8000002801D000F0BEFE012002210022FEF752
:101E900089FF00F0B3FE9F4C10349F4B1B681A78EB
:101EA0003C2A00D9C7E192009C498A5897469C4A2F
:101EB000127BD00700D5BEE101231A43984B1A7359
:101EC000FFF75CFC012801D100F09CFE002803D044
:101ED0000228E2D100F092FE8E4B5978081C28307F
:101EE000894A82188C48026008315278D2008918D9
:101EF0005970D2E78A4A127B910707D5550600D55B
:101F000099E140231A43864B1A7303E002231A43D4
:101F1000834B1A73FFF732FC012801D100F072FEE7
:101F2000002803D00228B8D100F068FE794B597818
:101F3000081C2830744A82187748026008315278A9
:101F4000D20089185970A8E7754A127B560700D548
:101F500071E104231A43724B1A736E4B59780A1CB1
:101F6000081C2830684BC318D878002809D02A32BA
:101F700004200021FEF716FF6A4801F095FB00F0EF
:101F80003DFE654A136008315B78DB00C918614B80
:101F9000597082E7644B1B78002B1BD15D4D281CC8
:101FA00008306A782832584E311C09F0E8FE5F4844
:101FB000544B534A02F08AF801225B4B1A700022FC
:101FC000AA71574B69787618F66A1E615A619A6150
:101FD000DA611A62201C5649102209F0C1FE00285D
:101FE00001D000F00FFE4B4820304949102209F083
:101FF000B7FE002801D000F005FE464B5B781D1CA3
:102000002835414AAD18464A12696868904201D0A5
:1020100000F0F8FD474A1788303FFB1A9FB26888E6
:10202000FFF704FD444B061C1E4010D1394B9A7932
:1020300002210A439A71384A126829781170181CD3
:1020400008305A782832304909F099FE03E080239D
:10205000DB009E4204D8F5198023DB009D4207DD9A
:102060000022314B1A70314802F06EF800F0CAFDC0
:10207000284B5B789846244B4344588DFFF7D6FC99
:10208000C10708D4234B9A7901210A439A71F219A6
:10209000234B9A8414E07A0712D004200021021CFA
:1020A000FEF780FE1B4B9A7904210A439A710022A5
:1020B0001D4B1A701D4802F047F81E4B1D88A5E005
:1020C000434628339B1913480830C0184146303125
:1020D0000D4BC9183A1C09F052FEB309A9118B42E5
:1020E0002ED10F4AD318154AED1007210D40505D2F
:1020F000F6083140515C81431A7D0A431A753FE06E
:1021000060EA00000000000004130020FE800000D0
:102110001C13002020F4FF1F0817002028D2000005
:1021200020F8FF1F8CD30000441700205017002018
:102130000C130020F0120020F8FF00003CD3000038
:10214000D44AD218B606760FD348865D107D304348
:10215000107501331A1C994208DDCE4EFF20B218CB
:10216000107501339BB21A1C9942F8DCC94B5918FF
:10217000AD066D0FC84B5A5DD2430B7D13430B75F3
:10218000C64B9B79DD0701D400F03CFDC14B9D8C13
:10219000A80913D01B7DFF2B01D000F033FDBD4BF0
:1021A0001533411E89B2591806E001335A1E1278C0
:1021B000FF2A01D000F026FD8B42F6D1B54B18184E
:1021C000AD066D0FB44B5B5DDB43027DDBB29A4223
:1021D00001D000F017FD0022B14B1A70B14801F098
:1021E000B3FFAC4B9D8C2835AC494A78AD18ADB2E5
:1021F0009D84AD4E0831301C2A1C09F0C0FD2B1CFB
:10220000283B1B1233712B1C283B7371A74B1D807D
:10221000002D01D100F0F6FCA04B9B795E0701D5A3
:1022200000F0ECFC00239D4A53709A4A1373A04AB5
:10223000A04B1A6031E69C4A9A1A04200121FEF74D
:10224000B1FD9D4801F030FA00F0D8FCFFF722FC08
:102250009A4B984204D09A4801F026FA00F0D2FC3A
:102260008E4B5A782832904BD31818785978FEF74D
:1022700069FD012804D1934801F016FA00F0C2FC70
:102280008A4B1B88002B01D100F0BCFC00F0B6FC8F
:10229000FFF72EFBFFF7F8FB884B984201D000F0C8
:1022A000B1FC814B5D8D002D01D100F0ABFC1E8D8A
:1022B000002E01D100F0A6FC2523834AD45C002C1B
:1022C0000DD0138AAB420AD1538AB34207D17F485B
:1022D000111C102209F044FD002800D158E13523DB
:1022E000714AD35C3F221340022B0ED1694BDD842F
:1022F00000226A4B9A70764B1B88AB4201D000F0EB
:102300008DFC5CE00222654B9A703523664AD35CF3
:10231000580701D500F076FC131C1421352299547E
:102320003C21624A11805021342299542F22995C19
:1023300088463325595D99542E21585C32229E5C83
:102340005E5498542D26995D31229F5C9F55995477
:102350002C27DA5D514EB27030269C5DDC559A55C3
:1023600044460134E4B25C55002C0ED1431CDBB270
:1023700032204D4C2354002B07D14B1CDBB23121B2
:102380006354002B01D10132A255474B1A8D4149AC
:10239000CA84598D19855A851A1C1832191C08319E
:1023A00061C961C209681160181C0830011C103134
:1023B00007F0F0FC00F005FC0022384B9A70252352
:1023C000414AD35C002B0ED0072B01D0002400E043
:1023D0003D4C0122314B9A70002C05D13D4801F053
:1023E00063F900F00FFC384C3B4B1C6003232622A2
:1023F000A3542422A35400232222A35404212322E1
:10240000A1542722A35425826682274D2B1C083312
:10241000221C43CB43C21B68136001202523E054D8
:102420001C4B1A7A22765A7A62769A7AA276DB7AEC
:10243000E376A0832F23EB5CE3752E23EB5CA3757F
:102440002D23EB5C63752C23EB5C2375FFF71EFAE1
:102450003423EA5C0F23111C9943502979DD0023B2
:102460000E498B70100905388000282209498A5CC2
:1024700063E00D4DEA183C321278002A05D128217C
:1024800004484254054A937063E0012A26D101337F
:10249000DBB252E020F8FF1F3CD3000020F4FF1F06
:1024A000441700205017002004130020F0120020D1
:1024B0000A13002008170020ACD30000FFFF000023
:1024C000C8D30000E0D30000141700200C13002034
:1024D0004817002000D4000010170020022A1ED147
:1024E000C64E75183D352D78042D18D1C4480225E7
:1024F00028228554C34A937071180B1C3E331A78F6
:1025000012023F310B781A43C284131CF121A940F7
:102510008A4201D9F1239B00E383238419E0B74D5C
:1025200069183D310978002905D12821B448425461
:10253000B44A93700DE0CB18DBB2191E814298DBD0
:102540002821AF484254AF4A937002E0AE4C00E0FD
:10255000AD4C10213523A94AD15400E0AA4CA74B19
:102560003522985C0221014399543C22022199545E
:1025700004213D22995403213E229954C4213F2233
:1025800099544021A14A1180602134229954DDE2FE
:102590009D4A9F4B1A6000229E4B1A703523974A22
:1025A000D35C5E070CD500212523974AD1549A4865
:1025B00001F07AF82022974B1A70FFF77DF821E39B
:1025C00034228E49895C090989008E4A91708F4AAC
:1025D00010882838411A89B211800F222240022A1D
:1025E00004D13F201840122806D11EE0012A03D151
:1025F0003F201840022818D0002901D1980714D094
:102600007E49888D8049898A884205D17B49C88D59
:102610007D49C98A884208D0990700D48AE2012AF4
:1026200094D0022A00D085E298E7DA0652D5764B9C
:10263000998B00294ED07948FFF7F8F830236F4A7C
:10264000D45C774B1B78A34244D13123D05C744BCC
:102650005B7883423ED13223D15C714B9B788B42B5
:1026600038D13323D25C6E4BDB78934232D1664B48
:102670001C7658769976DA7627229B5C002B1FD140
:10268000614B2224185D2422995C26229A5C891AC7
:10269000C208891AC9B2CAB20818C0B2185553B2D2
:1026A000002B01DA4A42D2B2574B23215C5CA508C9
:1026B000641BA218D2B25A54C008121824215A54CA
:1026C0000122544B1A70504B2422995C26229954B3
:1026D00000229A8325234C4AD35C0F221A40013AE8
:1026E000D1B2072900D98DE2D2B292004D498A5861
:1026F0009746484B1B78DC0718D5434B032125220E
:1027000099544021434A117000229A833F4B188804
:10271000904204D042223F4B1A70FFF7B7F80022D4
:10272000414B1A80FEF7C8FF374C23E13523334A6B
:10273000D25C3F231340022B00D063E208E7354B05
:102740001B78DD0700D49BE035232C4AD25C3F2365
:102750001340122B00D093E03423284AD25C0F237D
:10276000161C9E43502E6BDD002326498B701009EA
:1027700005388000282222498A5C59E01F4CE21863
:102780003C321278002A05D128211D4842541D4AA6
:10279000937055E0012A02D10133DBB248E0022AEE
:1027A0001FD1164D6C183D342478042C19D11448CF
:1027B000022428228454134A937069180B1C3E3358
:1027C0001A7812023F310B781A43C284131CF1218C
:1027D000A1408A4201D9F1239B000B4AD383138481
:1027E0002EE0064E71183D31097800291ED12821AE
:1027F00003484254034A937022E0C0460413002069
:1028000020F8FF1F20F4FF1F14170020F0120020F3
:10281000101700200417002024D400002C170020DB
:10282000F81200201CD3000068170020CB18DBB280
:10283000191E8142A2DB2821B4484254B44A937045
:10284000B44C03222523E254B34B2C229A5C22750C
:102850002D229A5C62752E229A5CA2752F229B5CB7
:10286000E3750120FFF712F84222AC4B1A700023E7
:10287000A383AB4A1380AB4A1380FEF71DFF79E0B8
:102880002022A64B1A70FEF717FFA74B1A680021EB
:102890002523D15439E535229F498A5CD00728D5B4
:1028A000D90626D49B4B9B8B002B00D0AAE19C4CD5
:1028B0002088013080B2FEF7E9FF984A1378102192
:1028C000194311702288002A03D012221343934A1D
:1028D0001370FEF7F1FE8F4C0123A38308222523FA
:1028E000E25400222723E254112135238A4AD1548D
:1028F00025E1940610D5884A3A21505C00023B211C
:10290000515C8A4A041C0C4315682C191460844AD3
:1029100001431088411A1180814A1088002808D08C
:10292000DE0606D47D4B1A7802210A431A70FEF7A0
:10293000ADFF794A3623D15C09023723D35CCB182B
:102940009BB2724AD384734A128C934201D8002BF3
:1029500001D16E4BDA846D4BDA8C6E4BDA836F4BA0
:102960001B78980700D14DE100226E4B1A80FEF7CC
:10297000A3FE684C694B1B78990609D50022694B68
:102980001A802523E25414213523634AD154D6E01A
:10299000DA060FD50022634B1A800123A383042299
:1029A0002523E25427230022E254112135235A4AD9
:1029B000D154C4E05B4A1288002A12D0DD0702D548
:1029C0000023A38302E0A38B002B08D1E38B9A4260
:1029D00001D9544A1380534B1B88A38301E0514A09
:1029E000138000222723E254514B1A684F4B1A6080
:1029F0004C4B1B88002B0AD0A38B002B07D03C33F9
:102A0000474A138018213523434AD1549AE0434B57
:102A10001B789E0700D4F5E03C22414B1A80102120
:102A200035233D4AD1548DE03C4B1B78D80700D468
:102A3000E8E000212523374AD1541022374B1A7081
:102A4000FEF73AFEDEE0364B1888002801D0FEF78C
:102A50001DFF3523304AD35CD90719D52F4B1B787E
:102A6000DA0708D52B4B072125229954002226216D
:102A70005A549A8303E006212523264AD154012083
:102A8000FEF704FF1022254B1A70FEF715FE51E0E9
:102A9000224B1B78DC0706D51E4B052125229954B5
:102AA00000229A83AEE01E4B1B88002B42D1A9E086
:102AB0001B4B1888002801D0FEF7E8FE3523164A84
:102AC000D35CDD070FD5134B072125229954002134
:102AD000262299540120FEF7D9FE10220F4B1A70BE
:102AE000FEF7EAFD26E00E4B1B88002B22D189E081
:102AF0000A4B1B78DE0700D484E0064B0721252211
:102B000099540021262299547CE0C04620F8FF1FEA
:102B100020F4FF1F141700200413002004170020C6
:102B2000F012002068170020101700200C1700205A
:102B3000F4120020102135233E4AD1543E4C3C2251
:102B40003E4B1A80502134233A4AD154227D3948D1
:102B50003023C254627D3123C254A27D3223C25439
:102B6000E27D3323C254227E2C23C254627E2D2365
:102B7000C254A27E2E23C254E27E2F23C254238A43
:102B80000385638A4385031C1833221C62CA62C30F
:102B900012681A600830011C103107F0FBF8252379
:102BA000E35CD80606D5234B002237215A54362140
:102BB0005A5406E01F4B032136229954E82137224C
:102BC00099541C4C0623A3711D4B1B79E3711B4BBD
:102BD0001B881A1C283A12122271283B63710025A7
:102BE0003B23E5543A23E5542587FEF74DFFC043C8
:102BF0002087602323700023637065800022114BBF
:102C00001A7013E000220D4B1A8000230E4A002197
:102C100051700E4A13730B4A137007E00C4B5B881C
:102C2000AB4201D0FFF76EFBFFF7C6FB04BC90463A
:102C3000F0BDC0460413002014170020F01200203D
:102C4000702100200417002020F4FF1F20F8FF1F30
:102C500048170020C046C046030C1A021B0A134343
:102C60009BB2020480B21043000A0004184370476C
:102C700010B5041C144B1B68002B09D01348F1221B
:102C800092008018C01A0A1E824207DD021C05E06D
:102C90000A1CF12189008A4200DD0A1C002A12DD8B
:102CA0000B490A80A3420ED0002B06D11204120C4D
:102CB0000648211C09F063F805E01204120C181CE8
:102CC000211C09F05CF810BDF41200204013002014
:102CD00068170020012842D800281FD1204B214A24
:102CE000985880210901014399501F4A9858802122
:102CF000C903014399501D4B802292005A619A6189
:102D0000DA611B4BDA785A7900221A705A70202245
:102D10009A70DA7850221A70DB7820E001281ED1F0
:102D20000F4B104A985880214901014399500E4A8F
:102D3000985880210904014399500E4B802292003B
:102D40005A619A61DA610C4BDA785A7900221A706A
:102D50005A7020229A70DA7850221A70DB78704705
:102D600000700440381000003410000000B004402F
:102D70000060074000C004400070074030B54118B3
:102D8000094B2024094DDA781442FCD0DA78027815
:102D90005A710130DA7852B2002AFBDADA785A79BD
:102DA0002A708842EFD130BD006007404CF8FF1F09
:102DB00070B582B0051C0C1CFF226B46DA71074E01
:102DC000684607300121FFF7D9FF33782B700135B2
:102DD000013C002CF4D102B070BDC0464CF8FF1F7E
:102DE00030BFFDE7014B18887047C04650F8FF1F01
:102DF000074B1B8801339BB2FA221202934202D086
:102E0000034A138002E00022014B1A807047C0463B
:102E100050F8FF1F38B5041C224B1B78191C224B9D
:102E20009A780420002A3CD11E4B1A780820002AE8
:102E300037D00920002C34D04D006D18ED001B4B0D
:102E4000ED1804F06DFC184B1B88E418184B9C42DD
:102E500004D9C021C9006418AC8100E0AC81154BD5
:102E60001B68002B06D01D616B61124B1D60002397
:102E70002B6106E00F4B1D600F4B1D6000232B6183
:102E80006B61094BA97B89000C4A8A5859689143A8
:102E90005960802252050A4B1A6062B604F044FC65
:102EA000002038BDD517002050F8FF1F741E0020E9
:102EB000FFF90000641F0020701E00204CD40000A9
:102EC00004ED00E0F8B5224B1C68002C3DD0214DEC
:102ED0002E1CA2892B889A4234D1A77B04F020FCB7
:102EE000BF001D4ABB587268134373601B4BA3811C
:102EF00004F01AFC164B1B689C420FD1184B1B6840
:102F00009C4205D10023164A1360114A136015E054
:102F100023690F4A136000225A610FE0104B1B68AF
:102F20009C4205D163690E4A136000221A6105E0D4
:102F3000236962695A61636922691A6180225205B4
:102F4000084B1A602469002CC3D108F0EFF9F8BDD2
:102F5000701E002050F8FF1F4CD40000E9FDFFFF59
:102F6000641F002004ED00E00B4B002200211A80BA
:102F70000A4801700A4801709A609A81094B191C2D
:102F80002031FF221A7001338B42FBD10023064A05
:102F90001360064A1360704750F8FF1FD5170020D2
:102FA000B0170020B4170020641F0020701E0020FE
:102FB000F0B557464E464546E0B4071C8846141CFB
:102FC0001E1C5E4B1A780025002A02D004F0A8FBD4
:102FD000051C032294433F2C0AD8584B1B7802202F
:102FE000002B00D1A5E0281C04F09EFB0220A0E0ED
:102FF000A0088146524B9A894A44D0235B009A42EA
:103000000AD94E4B1B780120002B00D191E0281CDF
:1030100004F08AFB01208CE0002E1AD01F2E0AD962
:10302000464B1B780320002B00D182E0281C04F0C3
:103030007BFB03207DE0434B9B5DFF2B13D03F4B7D
:103040001B780420002B74D0281C04F06DFB042096
:103050006FE03A4B1B780720002B6AD0281C04F045
:1030600063FB072065E0384B1A7801321A70344B45
:103070009968CA0758D501230120DAB29446021C88
:103080009A40114208D163460133DBB20A432C480F
:103090008260002B0DD102E00133082BEDD1274BCC
:1030A0001B780A20002B44D0281C04F03DFB0A208A
:1030B0003FE00898002800D003605900C918C900F3
:1030C000224A89188A4642460A6021488046416859
:1030D0006218111C40395046416082608673194A5B
:1030E0009355381C211C04F0C3FA154B9A894A44A5
:1030F0009A8141464968641842465460154A5046D0
:103100008281002202614261B600134AB2585968B6
:103110000A435A60094B1B780020002B09D0281C59
:1031200004F002FB002004E001231943044A9160EB
:10313000BFE71CBC90469946A246F0BDD5170020BB
:1031400050F8FF1FB4170020B0170020741E002095
:103150005CF0FF1FE8FDFFFF4CD40000F8B54F46C0
:103160004646C0B4071C0C1C2E4B1B780025002BB8
:1031700002D004F0D5FA051C03239C433F2C09D848
:10318000284B1B780220002B47D0281C04F0CCFAD7
:10319000022042E0A608244B9A89B218D0235B0093
:1031A0009A4209D91F4B1B780120002B35D0281CCF
:1031B00004F0BAFA012030E01C48814641686318E7
:1031C0001B4A9046191C4039DC2240468150E022BF
:1031D00083500022E623C2540922164B1A70381C71
:1031E000211C04F045FA104B9A89B6189E81494675
:1031F000496864184A4654600F49E42240468152A7
:10320000012259680A435A60064B1B780020002BA4
:1032100003D0281C04F088FA00200CBC9046994684
:10322000F8BDC046D517002050F8FF1F5CF0FF1F07
:10323000741E0020B4170020E8FDFFFF064A00239B
:103240001370137213741376044A13701373044AC1
:1032500013701373137670476C170020D817002073
:103260008C17002008B5FFF7E9FFFFF77DFE04F09B
:1032700075F908BD4A4B98424AD94A4B984222D91F
:10328000494B98420ED9494B984204D9C043C00FCC
:103290001F23181A82E00023454A82425B411D2009
:1032A000C01A7BE0434B984206D90023424A82422F
:1032B0005B411B20C01A71E00023404A82425B41FF
:1032C0001920C01A6AE03E4B984210D93D4B9842F3
:1032D00006D900233C4A82425B411720C01A5DE0B8
:1032E00000233A4A82425B411520C01A56E0384B0F
:1032F000984206D90023374A82425B411320C01A04
:103300004CE00023344A82425B411120C01A45E060
:10331000FF2824D9314B984210D9314B984206D915
:103320000023304A82425B410F20C01A36E000235E
:103330002D4A82425B410D20C01A2FE02B4B984250
:1033400006D900232A4A82425B410B20C01A25E09D
:103350000023284A82425B410920C01A1EE00F2840
:103360000FD93F2806D900237F2282425B410720E4
:10337000C01A13E000231F2282425B410520C01ABD
:103380000CE0032806D90023072282425B41032078
:10339000C01A03E001238342804140427047C04687
:1033A000FFFF0000FFFFFF00FFFFFF0FFFFFFF3FDA
:1033B000FFFFFF1FFFFFFF03FFFFFF07FFFFFF01EF
:1033C000FFFF0F00FFFF3F00FFFF7F00FFFF1F0019
:1033D000FFFF0300FFFF0700FFFF0100FF0F0000DA
:1033E000FF3F0000FF7F0000FF1F0000FF03000001
:1033F000FF070000FF01000008B5054B1B68054AE8
:1034000050681840FFF736FF034B185C08BDC046F4
:103410005CF0FF1F50F8FF1FB417002008B50C48E0
:10342000C021FFF79BFE012300280FD1FFF7E4FF27
:10343000084B18701B785A00D318DB00064AD318C3
:103440005A68064B1A6062B600DF0023181C08BDDC
:10345000E12D0000D5170020741E00203821002027
:1034600010B5041E07D0283000F07AFA024B186815
:10347000211C00F0E5FC10BD6CF0FF1F08B5034BEC
:103480001868034900F0D2FB08BDC0466CF0FF1F6E
:1034900061340000F8B5071C161C1D1C104C206878
:1034A00000F010FC041E18D0391C102208F067FC34
:1034B0002123E6542223E554201C283000F02CFA66
:1034C000201C1030002106F0ADFE201C1830002119
:1034D00006F0A8FE00222023E254201CF8BDC046BE
:1034E0006CF0FF1F08B5011C024B186800F0D8FCF7
:1034F00008BDC0466CF0FF1F70B5051C0D4B186869
:1035000000F0C4FB041C002D10D000280FD0094E81
:10351000201C291C102208F023FC002807D030684A
:10352000211C00F097FB041EF2D100E00024201CB7
:1035300070BDC0466CF0FF1F08B5011C024B186837
:1035400000F066FC08BDC0466CF0FF1F08B5FFF731
:10355000F3FF08BD08B5FFF7CFFF002802D0FFF743
:10356000C1FF00E0002008BD08B51B2001F014FBDE
:10357000014906F039FE08BD00DA0000F0B5474603
:1035800080B4464B186800F081FB041E00D182E035
:1035900022252026FA27BF00635DDAB2012A06D071
:1035A000002A0DD0032A30D0042A6CD13DE0201C23
:1035B000103006F03FFE002865D00223635562E01C
:1035C000A35D022B03D9201CFFF74AFF5BE0182301
:1035D0001B199846181C06F02DFE002853D0304BBE
:1035E0001B88002B4FD1A35D0133A3550020002180
:1035F000221C01F043FE2B4B1869391C07F0B8FE62
:10360000011C404606F00EFE3DE0201C103006F086
:1036100011FE002837D0042363550023A355201C36
:103620001830002106F0FEFD2DE0A35D022B0DD920
:10363000201CFDF7D1F9002804D0037F002B01D115
:10364000FDF7A4F9201CFFF70BFF1CE018231B1942
:103650009846181C06F0EEFD002814D0104B1B886D
:10366000002B10D1A35D0133A3550020211C221C87
:1036700001F004FE0B4B1869391C07F079FE011CA0
:10368000404606F0CFFD054B1868211C00F0E2FA19
:10369000041E00D080E704BC9046F0BD6CF0FF1F14
:1036A000F01200207021002008B5011C014804F030
:1036B00053FF08BDE4D4000010B507F009FE15481B
:1036C00006F09AFD14481549082208F058FB04F04A
:1036D00047FB04F063F804F067FC1148002104F094
:1036E00021FD06F0E5F800F0E5F90E4806F08CFD46
:1036F00000200D4905F01AF80C480D4904F02CFF84
:10370000094C04F049FD0028FBDC2068002105F08D
:1037100063F8F6E7DCD40000FC120020CC27002080
:10372000A0F0FF1F2CD70000681F0020F0D400007D
:103730000CD5000008B5FFF7BFFFC04601608280CE
:103740007047C04610B5041C4388002B02D0B72B2D
:1037500045D10DE0002A03D100234380022043E03D
:103760004160028200222023C25432E0B7236380EA
:103770002023E35C062B03D11C4B1B785A0711D581
:10378000238A1B4A1268D18B8B4203D96068FFF7EA
:103790006FFA03E06068191CFFF76AFA062220231B
:1037A000E25420E0DA071ED5238A114A1268D18B31
:1037B0008B4206D95B1A2382D38B6268D31863606D
:1037C00004E06268D318636000232382012220236F
:1037D000E254238A002BC9D100222023E254002383
:1037E0006380032000E0002010BDC04604170020C5
:1037F00010170020C269038BD01A80B27047C046F0
:10380000031C428A0120002A0CD120229A5C022A41
:1038100004D1032120229954002003E0024B1878A0
:103820008007C00F7047C0460417002070B5051C04
:103830000E1C4388002B04D083225200934247D1B0
:103840000AE01430AA8BE968FFF778FF6B8A002B37
:1038500012D183235B006B80281CFFF7D1FF031C70
:103860000020002B37D002222023EA541A4B1B6879
:10387000AB601A4B1B886B822B1C14332C1C083436
:103880002A1C123211E02168087819680870216832
:1038900001312160196801311960118801391180E5
:1038A000998801399980864208D09888002802D0EA
:1038B00010880028E7D16B8A002BC7D0281CFFF79F
:1038C00099FF002804D100232022AB546B8002E032
:1038D00000236B80032070BD0C170020F012002025
:1038E00038B5041C00252023C5544582C160C2613F
:1038F000143092B2FFF722FF2580658038BDC046A4
:1039000010B5041C0348216804F002FB0023236067
:1039100010BDC04688F0FF1F002303607047C046FB
:1039200070B582B0061C141C1D1C00203368002BCF
:1039300010D1094804F0CAFA3060002809D0812368
:10394000DB00C018054B00930196221C2B1C05F0D0
:10395000BFFF306802B070BD88F0FF1F0139000062
:1039600010B5041C006800280AD08123DB00C018B1
:1039700005F0D0FF0348216804F0CAFA0023236051
:1039800010BDC04688F0FF1F0068002801D0043039
:1039900000E000207047C0460368002B02D0024AB6
:1039A000985A00E000207047040400000368002BD0
:1039B00001D0014A995270470404000008B5324B07
:1039C000324A985880218900014399503049314A40
:1039D0009950314A985880214902014399501868FA
:1039E000C02109030143196098582C4901408020E7
:1039F0004004014399502A4B996C2A4A114099641A
:103A0000D96C0A40DA64284B24225A708021274A54
:103A100011709A221A70DA781F210A40DA70212276
:103A20001A7100225A71191C10228B791A42FCD18A
:103A30001D490C228B791340082BFBD140221A4BD5
:103A40005A71191C0C228B791340082BFBD1164993
:103A500040228B791A42FCD01A22134B1A70191C7F
:103A60000C228B7913400C2BFBD10F4B5979202260
:103A70000A435A710E4B997801220A439A70FDF756
:103A8000A3FA002008BDC0460070044038100000B2
:103A9000000001104410000004100000FFFFFFFCB4
:103AA00000900440FFF8FFFE004006400050064032
:103AB00000D0074010B5064B1868002806D0054C0A
:103AC000002104F02FFB01CC0028F9D110BDC04625
:103AD00080F0FF1F84F0FF1F002806D04B1C06D08B
:103AE00043685943C068401802E0002000E000200D
:103AF0007047C046002806D0044B9B68C01A80104F
:103B0000034B584301E001204042704794F0FF1FEF
:103B1000ABAAAAAA08B5031E07D0002908D0C2681C
:103B2000881A596807F072FC04E00120404201E065
:103B30000120404208BDC04610B5041C081CFFF718
:103B4000D9FF011C201CFFF7C7FF10BD08B5FFF708
:103B5000E1FF431C06D0430018188000024B9B680D
:103B6000181800E0002008BD94F0FF1F38B5051CB0
:103B70000C1C081C111CFFF7CDFF002C07D0431CA8
:103B800007D0285C236818410123184002E0002078
:103B900000E0002038BDC04670B5051C0C1C111C8F
:103BA0001E1C201CFFF7B6FF002C16D0431C16D09D
:103BB000002E09D02A182368012199400B1C117886
:103BC0000B43137001200BE02A1823680121994050
:103BD00013788B431370012002E0002000E00020E6
:103BE00070BDC04638B5051E00D10E4D0E4804F01C
:103BF000C5FC041E13D0002D09D0211D281C06F081
:103C0000F3FA002803D0201CFFF774FF09E0201C02
:103C100004F000FD041EEED10120404201E001202D
:103C2000404238BD00DA00000002002010B5021C3E
:103C3000074B5B680020072B08D8136004485C1C06
:103C4000446091609B00C0188260012010BDC04696
:103C50000002002070B5051C0C1C0B4E2836281CD9
:103C6000211CFFF773FF04F0D5FC011C281CFFF793
:103C700063FF041E06D0301C291C221CFFF776FFB0
:103C80000028ECD0201C70BD0002002070B5051C7F
:103C90000B4E301C04F072FC011C281CFFF74CFF7B
:103CA000041C301C2830291C221CFFF75FFF002851
:103CB00004D1281C211CFFF7CDFF041C201C70BD63
:103CC00000020020F0B55F4656464D464446F0B42B
:103CD00083B0041C0D1E00D14A4D281CFFF782FF43
:103CE000071C421C67D1484804F0F0F8061E73D147
:103CF000464804F043FC071E7BD000239946434A04
:103D0000904692469B46381CFFF7F4FE4246131835
:103D100030331B78002B15D1504428300378002B0A
:103D200007D05A460120011C194052185B10FAD1E5
:103D300000E05A46002E01D0914503DD002A07D04D
:103D40003E1C9146381C04F065FC071EDBD100E0E8
:103D50003E1C002E4DD02D4B0822D2189046283301
:103D60009B465B460193424604329046043A80CA21
:103D7000002F11D0BB689946002B0DD0381C311C88
:103D8000FFF7DAFE82460198391C5246FFF7EEFE35
:103D9000012801D15046C847D845E4D1301CFFF76F
:103DA000A9FE1A4B1A18283200211170181C311C58
:103DB00004F0F0FB10E0201C391CFFF78DFE051C01
:103DC0000021626807F0FCFF10482830211C2A1CE3
:103DD0000123FFF7E1FE0DE00C48311C04F0FEFB6F
:103DE000301CFFF787FE071C301D291C06F0F6F972
:103DF000E1E70025281C03B03CBC90469946A2464A
:103E0000AB46F0BD00DA000094F0FF1F0002002076
:103E100038B5051C081CFFF7E5FE011C281CFFF740
:103E20005BFE041C05482830291C221CFFF79EFE5F
:103E3000431E984140420440201C38BD000200202F
:103E4000F8B5051C0C1C094E301C2830291C221CFE
:103E50000023FFF7A1FE071C301C3030291C221C58
:103E60000023FFF799FE381CF8BDC0460002002071
:103E700008B5031C0A1C03483030191C0123FFF746
:103E80008BFE08BD0002002008B5031C0A1C034875
:103E90003030191C0023FFF77FFE08BD0002002010
:103EA00008B5FFF753FE002801D0043000E00020E1
:103EB00008BDC04608B50A4801F024FB094B196942
:103EC000094A0A4009490A431A6109481021A022F7
:103ED0001203FDF723F92F20FCF704FE08BDC046AE
:103EE0001048000000C00440FCF8FFFE0301000081
:103EF000C0F00F40014B18607047C0468802002098
:103F0000024B1A68024B1A607047C04688020020B4
:103F100000810440024B55221A60AA221A607047A1
:103F200004810440F0B583B01C4B1B68002B05D105
:103F30000022002319498A60CB602DE007F0D0F9F8
:103F400000900191154B1B689C68DD6818685968E2
:103F500024184D410099019A641A95411E69002E5A
:103F600013D0B268F3683068716812184B4100983A
:103F70000199121A8B419D4202D803D1944201D972
:103F8000141C1D1C3669002EEBD10099019A64188F
:103F90005541024B9C60DD6003B0F0BD90020020F3
:103FA00008B5024804F032F808BDC046A0F0FF1F73
:103FB000F0B5474680B4051C0388002B02D0592B6E
:103FC00053D106E000222C4B1A6059232B8001208C
:103FD0004EE087291DD1284B1B68002BF5D058696E
:103FE000824212D11B69002B02D1234A1360ECE7F5
:103FF00059698A42F6D020490B6006E0486982423E
:1040000002D10969196100E00B1C19690029F5D179
:10401000DBE78229D9D1184988460027424614682F
:10402000002CD2D03E1C00E01C1C201CFCF7BCFD68
:10403000002815D060698821221C03F0C1FF0028E8
:104040000CD16761002E02D02369336102E0206940
:10405000094908602761FFF765FFDFE7FFF7A0FF69
:104060002369261C002BDFD1AFE700230380032048
:1040700004BC9046F0BDC0469002002010B5041C60
:10408000FFF78EFF6269002A11D00E4B1B68002BD0
:104090000DD09C4208D101E09C4205D10A4B1B681F
:1040A0006361FFF73FFF0BE01B69002BF4D1064B68
:1040B0001B686361034B1A6822611C60FFF732FFC3
:1040C00010BDC046900200208C0A002010B5041CD0
:1040D000FCF74EFD201CFFF7D1FF10BD10B5041CEE
:1040E000FCF750FD201CFFF7C9FF10BD10B5041CE4
:1040F000FCF752FD201CFFF7C1FF10BD4069434291
:104100005841704730B58468C56802684368121921
:104110006B41101C191C30BD024B1868431E98419E
:104120007047C0469002002008B5FFF7F5FF002257
:104130000023002802D0034B9A68DB68101C191C6E
:1041400008BDC0469002002010B5041C0F4B1A6831
:10415000904204D102691A60FFF7E4FE0CE0002AE5
:104160000AD01369834205D1131C09E01A69A242DF
:1041700006D0131C002BF9D100232361636104E0F6
:1041800022691A61FFF7CEFEF6E710BD900200200B
:1041900000207047014B18787047C046A0020020ED
:1041A000014B58787047C046A002002070B584B01B
:1041B0006C46E071FFF7F4FFE3795B00E3710028E0
:1041C00025D01E4D00236B701D4C201C1021FCF7C8
:1041D000BFFF1C4E301C1021FCF7D2FF6846073091
:1041E0000121FEF7CBFD68460F300121FEF7E0FD0F
:1041F000301C1021FCF7C2FF01236B70201C102122
:10420000A0221203FCF78AFF6B46D87B13E00D4C0B
:10421000201C1021FCF7B4FF684607300121FEF78F
:10422000ADFD68460F300121FEF7C2FD201C1021B4
:10423000FCF7A4FFE8E704B070BDC046A002002070
:10424000C0F00F4080F00F4070B582B0051C0C1C10
:10425000FFF7A6FF01AB6D00012215431D705C70D6
:1042600000281DD0164D00236B70164C201C102109
:10427000FCF76EFF144E301C1021FCF781FF01A8E3
:104280000221FEF77BFD301C1021FCF777FF012394
:104290006B70201C1021A0221203FCF73FFF0CE0E2
:1042A000094C201C1021FCF76BFF01A80221FEF72E
:1042B00065FD201C1021FCF761FF02B070BDC046F7
:1042C000A0020020C0F00F4080F00F4010B5362053
:1042D000FFF76CFF041C04210143C9B23620FFF72D
:1042E000B3FFFB2121403620FFF7AEFF014807F066
:1042F00013F810BDC409000008B50F4B9B78002BC4
:1043000017D000220C4B9A700C4880210901FCF751
:1043100037FF22208021FFF797FF2A200421FFF793
:1043200093FF0D206021FFF78FFF35208021FFF7DD
:104330008BFF012008BDC046A002002080F00F4086
:1043400008B50C4B9B78002B12D10B48802109013A
:10435000FCF714FF36200421FFF776FF36200021FA
:10436000FFF772FF054806F0D7FF0122014B9A7054
:10437000012008BDA002002080F00F40C409000009
:1043800038B50F4CA578FFF7DBFF0423E3701B2043
:104390000121FFF759FF0A4AD378042BFCD0002DE6
:1043A00001D1FFF7A9FF064BD878022806D00328D1
:1043B00002D0431E984102E0032000E0022038BDF5
:1043C000A002002070B582B0041CFFF7E9FE01AB2B
:1043D000E10880220A431A7064015C70002824D02E
:1043E0001C4D00236B701C4C201C1021FCF7B0FEF0
:1043F0001A4E301C1021FCF7C3FE01A80221FEF763
:10440000BDFC684607300121FEF7D2FC301C1021AC
:10441000FCF7B4FE01236B70201C1021A0221203B4
:10442000FCF77CFE6B46D87912E00C4C201C102166
:10443000FCF7A6FE01A80221FEF7A0FC68460730A3
:104440000121FEF7B5FC201C1021FCF797FEE9E7DF
:1044500002B070BDA0020020C0F00F4080F00F40FD
:1044600070B582B0041C0D1CFFF79AFE01ABE10889
:1044700080220A431A706401102214435C709D70FC
:1044800000281DD0164D00236B70164C201C1021E7
:10449000FCF75EFE144E301C1021FCF771FE01A8E3
:1044A0000321FEF76BFC301C1021FCF767FE012393
:1044B0006B70201C1021A0221203FCF72FFE0CE0D1
:1044C000094C201C1021FCF75BFE01A80321FEF71C
:1044D00055FC201C1021FCF751FE02B070BDC046F7
:1044E000A0020020C0F00F4080F00F4008B50D2062
:1044F000FFF75CFE0123011C1943C9B20D20FFF731
:10450000A3FE08BD08B5011C0B390901032319439B
:10451000C9B280208000FFF7A3FFFFF7D7FE08BDD8
:1045200008B5011C0148FFF79BFF08BD030200000E
:1045300070B5634800F0E6FF6248FCF73BFE624856
:10454000FCF738FE6148FCF735FE614C201C102159
:104550004022FCF717FE8025ED00201C291C40227C
:10456000FCF710FE80263601201C311C4022FCF78F
:1045700009FE201C291CFCF703FE201C291C01221B
:10458000FCF7B4FD201C311CFCF7FAFD201C311C8B
:104590000122FCF7ABFD201C1021FCF7EFFD201CD5
:1045A00010210122FCF7A2FD01224A4B5A70FFF7AD
:1045B00081FC201C311CFCF7E1FD0020FEF78AFB8A
:1045C000201C291CFCF7DCFD434E301C06F0A4FE29
:1045D000201C291CFCF7D2FD301C06F09DFE2A2071
:1045E0000721FFF731FE07242A20FFF7DFFD0442F1
:1045F000FAD1394806F090FE18209821FFF724FEE2
:104600000B20FFF77FFF35480221FFF729FF3448D1
:104610008021FFF725FF0020FFF782FF314890211E
:10462000FFF71EFF30488021FFF71AFF822080002D
:104630000221FFF715FF882080002121FFF710FFDE
:104640003A207821FFF700FE3F206021FFF7FCFDB4
:10465000264D5F24281CFFF7B5FE031CA343DBB2E5
:10466000A02BF7D100200021FFF7EEFD11201C2127
:10467000FFF7EAFD1120FFF799FD2E209521FFF7A6
:10468000E3FD27203021FFF7DFFD19480121FFF767
:10469000E7FE104B00221A715A71DA701A7001226B
:1046A0009A70FFF713FEFFF721FF1248002103F075
:1046B00039FD3220F621FFF7C7FD002070BDC0464E
:1046C0000848000041200000A1200000B1200000A7
:1046D00080F00F40A0020020C40900000102000089
:1046E0000202000006020000070200000F020000A4
:1046F00011020000B0F0FF1F10B53E20FFF756FD7D
:10470000802149420143C9B23E20FFF79DFD0124AB
:104710003E20FFF74BFD0442FAD084208000FFF7D3
:1047200051FE024B5871587910BDC046A0020020BE
:1047300038B5084B9D78FFF703FEFFF7DDFF002338
:104740005F2282425B411C1C002D01D1FFF7D4FD8A
:10475000201C38BDA002002070B5051C0C1C4B1E8F
:10476000DEB21A0615D400200021FFF779FE0120E1
:10477000211CFFF775FE002C0ED001360024A31C6F
:1047800098B2295DFFF76CFE0134B442F7D10020E6
:1047900003E00120404200E0002070BD70B5051C20
:1047A0000E1C074B9C78FFF7CBFDF1B2281CFFF7DE
:1047B000D3FF002C01D1FFF79FFD002070BDC04644
:1047C000A002002010B50C1CFFF7E8FF002803D161
:1047D000201CFFF7D5FD01E00120404210BDC0467E
:1047E00070B5061C0C1C0022214B5A702148102168
:1047F000FCF7AEFC39200421FFF726FDC020800025
:10480000FFF7E0FD851EEDB2A5420DD8002D0BD0BF
:104810000024194AA31898B2FFF7D4FD305501348B
:10482000E3B29D42F5D811E039200021FFF70CFDDD
:104830000F4B00221A7001225A700E481021A0223C
:104840001203FCF76BFC012040420FE039200021ED
:10485000FFF7FAFC064B00221A7001225A70054835
:104860001021A0221203FCF759FC281C70BDC04681
:10487000A0020020C0F00F400103000008B5C9B23B
:10488000FFF7AEFF08BDC04610B5041C0388002B1F
:1048900003D0104A934219D103E00E4B238001202C
:1048A00017E00120822914D10B4B1B78002BF4D088
:1048B00000F00EF900F08EF88021FFF7DFFFC0B2A4
:1048C00000F082F8054B1B699847E6E70023038058
:1048D000032010BDB3030000A0020020D8D90000BF
:1048E00010B53120FFF762FC002821D0C4B22307A5
:1048F00005D501220F4B1A700F4803F087FBE30721
:1049000011D52420FFF752FCC30709D5830603D530
:104910000222084BDA7006E00322064BDA7002E04E
:104920000022044BDA70054B1A6819680A431A60B2
:1049300010BDC046A0020020B0F0FF1FA0C0044080
:1049400008B5FFF7CDFF044B186803F0F1FF802294
:104950005205024B1A6008BD681F002004ED00E0FC
:10496000F8B5071C0D4B1D783022521B0C4B9E8E48
:104970009419802C0FDC09490431491907F0FFF91B
:104980007D1B281C3030064B9A8F996B8918321C7E
:1049900007F0F5F900E00024201CF8BDA802002073
:1049A00028030020074B9A8E0023824207DB80B247
:1049B000044B998F41189987101A98860123181C67
:1049C0007047C04628030020014B98867047C046B8
:1049D00028030020024B9B8F0248C01834307047D8
:1049E00028030020A8020020024B181D1B78C018C5
:1049F0007047C046A8020020014B988E7047C04601
:104A00002803002010B50B4B9C8F002C10D0FFF713
:104A1000F3FF031C3033302B07DD074B34331818FA
:104A20001A5D1A7001338342FAD10022014B9A8732
:104A300010BDC04628030020A8020020054B1B78AB
:104A40003020C01AC0B2002802D1034B988FC0B2E8
:104A50007047C046A80200202803002010B5FFF7C9
:104A6000EDFF041CFFF7C8FF201880B210BDC04640
:104A700038B5041C074B1D780020A54209DBFFF761
:104A8000EDFF03190020802B03DC2C1B014B1C7055
:104A9000012038BDA802002070B50A4B191C343122
:104AA00000221A8002338B42FBD10024064E074DB0
:104AB000E0008019291C05F091FB0134042CF7D18A
:104AC00070BDC0468C1F00206C1F002000DA000063
:104AD00008B5064B00229A879A86054A3021117044
:104AE00034329A63FFF7D8FF08BDC0462803002080
:104AF000A8020020F8B5071C0D1CFFF7E9FF2C1CCD
:104B0000802D00D98024A5B2044EB06B391C2A1C1C
:104B100007F035F9B486281CF8BDC04628030020EC
:104B200010B50C1C0449342207F029F9201C034954
:104B3000202207F024F910BD8C1F00206C1F0020DC
:104B400010B5031C0C1C0548191C342207F017F97A
:104B50000348211C202207F012F910BD8C1F0020F1
:104B60006C1F00204000024BC15201207047C0461C
:104B70008C1F00204000014B185A70478C1F0020EA
:104B800008B51A38C000034BC01805F027FB0120F8
:104B900008BDC0466C1F00201A38C000014BC01869
:104BA0007047C0466C1F002008B50248024905F056
:104BB0001BFB08BD741F002000DA00007047C046D0
:104BC000F0B58DB0544BDB79FF2B00D09FE0534BF9
:104BD0001A78111C2831504BCB185B78002B00D071
:104BE00095E04F4B0421197000215960111C2C31A4
:104BF000042330324B480088824200DB85E0464C7B
:104C000012195478002C00D181E00026424C251C5A
:104C100007E052195778002F03D1414A56601370AC
:104C200075E01778012F00D1161CCA181219527896
:104C3000D200D318DBB25A188242EADB384A5660F7
:104C40001370002E61D0344B1B89002B1BD1324BCB
:104C50005B89002B17D1304B9B89002B13D12E4B36
:104C6000DB89002B0FD12C4B1B8A002B0BD12A4B3D
:104C70005B8A002B07D1284B9B8A002B03D1264B44
:104C8000DB8A002B43D02848FEF736FC244B986083
:104C9000002807D159680231234800220223FEF779
:104CA000F9FB32E01E4B5C680234FEF71BFC011C72
:104CB000201C082207F054F8002821D0184EB068B4
:104CC00001A90B1C021CB0CAB0C332CA32C392CABB
:104CD00092C3A0CAA0C32024055DFEF7C1FB716882
:104CE0000231114800220223FEF7D4FBB060031CFE
:104CF000103305AA42CA42C307AA82CA82C3055515
:104D0000074B9A6800212123D15405F097F800221F
:104D1000044B1A800DB0F0BD0413002021F4FF1FD6
:104D200068030020F01200200C130020F8B55F4645
:104D300056464D464446F0B4904B19780B1C2C3324
:104D40008F4A98180478D279FF2A00D0F6E02831EB
:104D50008B4A89184A78002A00D0EFE00279FF2AAE
:104D600000D1EBE040252540AB4604D0844A127EBA
:104D7000FF2A00D1E2E0834A142111700021516022
:104D80001422191C1431804E36888E4224DD7C4F4B
:104D9000C9194F78002F00D1D0E00025A846784FE0
:104DA000BC4608E061444D78002D04D1754B414666
:104DB00059601A70C2E00D78022D00D1884699180A
:104DC000C9194978C9008A18D2B299188E42E9DC0B
:104DD0006C4B45465D601A70043004F0B3FE694BBD
:104DE000D860002800D0A9E0644B1B786448C01844
:104DF0003030FEF781FB634EB060FEF773FB8046F8
:104E0000B668002E00D199E07F23211C9943894682
:104E10005C4B5F68002F00D194E0BA1C9246101CD6
:104E20004146082206F09CFF2223F35C002B22D18E
:104E300040465146082206F0A2FF5B46002B11D0E7
:104E400001222223F25400222023F25410364F4B29
:104E5000D868FA21890006F08BFA011C301C05F095
:104E6000E1F902E002222223F254464B9A68212300
:104E70004D46D55446E0C0B28246A1060ED401E0AC
:104E8000002292465546002D05D0012B56D1022214
:104E90002223F25452E0002F60D158E0B91C404662
:104EA000082206F06CFF594600290ED00122222369
:104EB000F2541036354BD868FA21890006F058FABA
:104EC000011C301C05F0AEF905E05246002A02D064
:104ED00002222223F2542B4B9A682123D35C002B0D
:104EE0000BD04B46002B08D12948FBF775FD254B0D
:104EF0001861002801D0FBF749FD224B9A68212355
:104F00004D46D5541F4B98682830FEF745FD0028C4
:104F100014D01C4CA0682830FEF73EFD1A4D2880A6
:104F2000A0682830FEF730FD011C2A88144806F0DE
:104F300026FFA0682830FEF713FD18E00022124B70
:104F40001A8014E02223F35C002BF7D003E05946CB
:104F50000029C0D0AAE7A20692D5F8E7B91C4046BE
:104F6000082206F00CFF5B46002BB4D09EE73CBC49
:104F700090469946A246AB46F8BDC04621F4FF1FB5
:104F80000413002068030020F0120020702100208C
:104F90000C13002010B5041C017002234370023072
:104FA0000549082206F0EBFE0023A372E372237387
:104FB0006373A373E37310BDFC120020F0B5474682
:104FC00080B4A74BDB79FF2B00D042E1A54B1B78C7
:104FD000191C2C31A24A8A181279FF2A00D138E113
:104FE00028339F4A9B185B78002B00D031E19E4B01
:104FF00000225A6014221A709A4B19780B1C403305
:105000009A4A12882C31934276DA954A9B185A783C
:10501000002A06D11DE1924A9B185A78002A04D131
:1050200017E1914F8E4E924880461A78012A50D14E
:105030007B603389002B1CD1894B5B89002B18D1F5
:10504000874B9B89002B14D1854BDB89002B10D11A
:10505000834B1B8A002B0CD1814B5B8A002B08D120
:105060007F4B9B8A002B04D17D4BDB8A002B00D128
:10507000EFE04046FEF740FA7B4B9860002807D1EE
:10508000596802317A4800220223FEF703FA20E031
:10509000FEF728FA051C744B5C680234201C291C9E
:1050A000082206F05DFE00280AD0281C211C0822D8
:1050B00006F065FE6C4B9A6802212223D15408E069
:1050C000694B9B6822229A5C002A02D1022122228B
:1050D000995465490C78634B1B782C331819604A36
:1050E00082185278D200A218D2B20A70191C9B18EA
:1050F0005E4A128893428EDB59480918081D04F055
:1051000021FD594BD860002800D1A2E0544B1B89E7
:10511000002B1CD1524B5B89002B18D1504B9B8923
:10512000002B14D14E4BDB89002B10D14C4B1B8A2A
:10513000002B0CD14A4B5B8A002B08D1484B9B8A31
:10514000002B04D1464BDB8A002B00D181E048487C
:1051500004F0F8FC002800D07BE0414B1A8B454B53
:105160009A422CD13E4B5B8B002B28D13C4B9B8B26
:10517000002B24D13A4BDB8B002B20D1384B1B8CDE
:10518000002B1CD1364B5A8C80235B009A4216D1DF
:105190002423334AD35CFF2B11D1131C1832191C62
:1051A000083131C931C2096811602E4A12789A1843
:1051B0000833303232CA32C312681A6018E02E48FF
:1051C00004F0C0FC284BDB68984242D1244B1A1CE7
:1051D0001832191C083131C931C209681160214ADD
:1051E00012789A180833303213CA13C312681A603F
:1051F0001C4E002535701A4C602323706570658045
:1052000000232371282363713A22A271FF22E271E5
:105210008822E25429230022E254E0222C23E25483
:10522000201C3030104BD9680231102206F0A7FD47
:10523000201C40300221FFF7ADFE337828331C19C3
:105240006580FCF727FCC04360805022074B1A8022
:1052500002E00022054B1A8004BC9046F0BDC04617
:105260000413002021F4FF1F68030020F012002027
:105270000C130020FF0200001C130020F8B5071CCF
:10528000161C00244D4B1C704D4B60221A705C7034
:105290005C803A229A71FF22DA71002916D1FF212F
:1052A000197602225A7600225A839A83DA831A8464
:1052B0002222002098540120232298542422995419
:1052C000717B25229954F289DA8404E03C48183035
:1052D000102206F054FD394B1B781A1C2832384C2A
:1052E000121987211170002555702C33E01820C049
:1052F000311C102206F043FD2571301C04F022FC05
:1053000000283FD1002F06D02D480830391C10222C
:1053100006F035FD04E02B48011C103104F03AFD85
:10532000274B1B89002B1FD1254B5B89002B1BD1E1
:10533000234B9B89002B17D1214BDB89002B13D1E9
:105340001F4B1B8A002B0FD11D4B5B8A002B0BD1EF
:105350001B4B9B8A002B07D1194BDB8A002B03D1F7
:105360000022194B1A8027E0154B28225A71134A44
:1053700010784030C0180121FFF70CFE5022124B6C
:105380001A800EE00E4B00221A815A819A81DA812E
:105390001A825A829A82DA8218225A7140220A4B61
:1053A0001A80064B1C782834054BE41800236380D0
:1053B000FCF770FBC0436080F8BDC04621F4FF1FBE
:1053C000041300200C130020F0120020F8B54F4603
:1053D0004646C0B4011C3B4B60221A7000225A7032
:1053E0005A803A229A71FF22DA7100280CD1364A8B
:1053F0001A8300225A839A83DA831A845A849A84FD
:1054000080225200DA8404E02E481830102206F080
:10541000B6FC2E4C211C1031201C04F0BBFC2C4F80
:105420003E78331C2833083C1B1986221A7000254D
:105430005D702C363619274B1B7933707570E1205F
:10544000C000FCF7F3FA70803878031C2C331B196A
:105450005D609D60204E3823338038300019012173
:10546000FFF798FD3388103333801C4989461C238D
:105470000B703B7848331B199846052341460B7047
:1054800001234B704D801648FDF7E6FB43465860FC
:10549000338808339BB2338049460A7808320A7051
:1054A0001A1C283A12122271283B63713B78283368
:1054B0001C196580FCF7EEFAC04360800CBC904676
:1054C0009946F8BD04130020FF0200000C130020D1
:1054D00021F4FF1F70210020F0120020680300203B
:1054E000DC05000010B5064C201CFBF751FC201C0D
:1054F0000C30FBF74DFC201C1830FBF749FC10BDAD
:10550000C0F0FF1F10B503049B0F9B00064AD31881
:105510009B6D1A68FF240440C004C10E201C884003
:105520001043186010BDC04628D60000002807D1DF
:105530008C4B19688C4A0A401A601A681A600FE18D
:1055400080235B0298420AD1864B1968864A0A403A
:105550001A601968802212030A431A6000E1C0230E
:105560001B0398420AD17F4B19687F4A0A401A6090
:105570001968C02212030A431A60F1E0CC231B060B
:10558000984205D1794B1A6803218A431A60E7E0F3
:10559000CD231B06984209D1744B1A6803218A4314
:1055A0001A60196801220A431A60D9E0CE231B064B
:1055B000984209D16D4B1A6803218A431A60196811
:1055C00002220A431A60CBE0CF231B06984208D17F
:1055D000664B196803229143196019680A431A60DF
:1055E000BEE08023DB0498420ED1614B1968614A0A
:1055F0000A401A601968604A0A401A6019688022D5
:10560000D2040A431A60ABE0A4231B0698420FD1D0
:10561000574B1968802252020A431A601968564A89
:105620000A401A6019688022D2040A431A6097E07F
:1056300080231B0598420AD14D4B19684E4A0A40F7
:105640001A601968802212050A431A6088E0C02394
:105650001B0598420AD1464B1968474A0A401A600E
:105660001968C02212050A431A6079E080235B049E
:1056700098420ED13E4B19683E4A0A401A6019689A
:105680003E4A0A401A601968802252040A431A608E
:1056900066E0A1231B0698420FD1354B1968802282
:1056A00052020A431A601968344A0A401A6019689B
:1056B000802252040A431A6052E080239B049842DD
:1056C0000AD12B4B19682D4A0A401A6019688022AA
:1056D00092040A431A6043E0C0239B0498420AD113
:1056E000234B1968254A0A401A601968C02292049F
:1056F0000A431A6034E0B0231B06984205D11C4BC4
:1057000019681F4A0A401A602AE01E4B98420AD1C3
:10571000174B1968174A0A401A6019688022D2028A
:105720000A431A601CE0184B98420BD1104B1968C1
:10573000802252020A431A6019688022D2020A4368
:105740001A600DE0114B984205D1114B1A680221E5
:105750008A431A6004E00E4B196802220A431A6059
:105760007047C04600700440FFFFF3FF08B00340DD
:1057700004800440FFFFFEFFFFFFFFF3FFFFFFFC7D
:10578000FFFFFBFF00070C000407080001070C00E7
:1057900000810440064B1A780023012A06D1044BED
:1057A0005B78834201D0002300E0014B181C704756
:1057B0008003002070B5061C1478087A0223634029
:1057C00098421FD1487A537898421BD1887A9378AF
:1057D000984217D1C87AD378984213D1087B1379AD
:1057E00098420FD1487B537998420BD1887B9379AB
:1057F000984207D1C87BD379984203D10320B040A7
:10580000C0B223E00B89002B14D14A89FF231B026D
:105810009A420FD18B89FE2B0CD10D4CE5680E31CD
:10582000281C022206F0ABFA0235E5600220B040E7
:10583000C0B20BE0064CE5680831281C082206F0CF
:105840009EFA0835E5600120B040C0B270BDC04688
:1058500080030020F8B54F464646C0B4061C984663
:1058600015090F2414400F2D00D110250F2C00D145
:105870001024002D03D0301C2A1C06F080FA271CAF
:105880002A190F2A05DC10239A1A7019002106F034
:1058900097FA002C17D0114BDA689146A046F71BF7
:1058A000381C1030111C221C06F069FA022C05D19C
:1058B0000A2D03D8FF23F372FE2333734A46424472
:1058C000064BDA6005E0002D03D0301C414604F0A1
:1058D00027FA0CBC90469946F8BDC04680030020CC
:1058E00010B5134CA1790220FFF73CF9A379112BD5
:1058F00006D10F4B1A8D598D914214DD111C12E007
:10590000062B06D10A4B1A8D598D91420BDD111CC5
:1059100009E000213A2B06D1054B2822995C0902A7
:1059200029229B5C194389B20120FFF71BF910BDA6
:105930000413002000000000F0B55F4656464D46B7
:105940004446F0B485B0C64C002323746374FFF75B
:1059500041F860610420FFF70DF900B2A061201C3E
:105960002030FBF721F9002803D0BD4B00221A8616
:105970005A86BB4B5B691C7824025978F8221202C4
:1059800022401212C02A02D0E02A32D113E00C4386
:105990006405640D9A781202DB781A439046B04B86
:1059A0005A7C04325A745B8E002B2DD100270125BE
:1059B00001210026FBE21E799A781202DB781A4355
:1059C00090460C436405640DA54D6B7C05336B74E8
:1059D0006F8EFFF711F838186B7CC01AC717E30FEA
:1059E000A0425F41FFB26B8E002B28D10025012120
:1059F000DDE29B4B00221A865A8600270025A84626
:105A0000002100260024D2E21A20FFF7C5F8011C6D
:105A1000944804F0E9FB002808D1914B00221A8633
:105A20005A860027012501210026C0E28C4B5B8E9F
:105A3000002B00D1C5E200270125002600E000254B
:105A4000002C00D1D8E2864B1B8E9946A34200D091
:105A5000D2E2834B9B8E434500D0CDE21A20FFF764
:105A60009BF8011C7F4804F0BFFB4C46002818D16E
:105A7000C2E2002905D0002D03D1BDE20027012597
:105A80003E1C77480486414681862030734B724A1B
:105A9000FBF76EF81A20FFF77FF8011C714804F03D
:105AA0009DFB6F4B5B7C9846052B00D126E26C4B2F
:105AB0005B6942469A5C93461F2258469043602891
:105AC00000D006E2424602329A186549CA60434451
:105AD0005B789846D9B289464BB2002B02DA013284
:105AE0005F4BDA605A46D20646D45B461B0727D482
:105AF0005B488246C168019139300131032206F0CA
:105B00003EF9019A12780092019A04325346DA6003
:105B1000009881080F220A4060231A435346382018
:105B20001A5430200140009A930119438C463923BE
:105B30005146C85C0F22024060460243CA543FE00F
:105B400047498A4660223823081CCA54C968019113
:105B50000B789A0830210A400F210B401343392259
:105B600083543A3001990131022206F008F9019B71
:105B700003335246D36023E05B461B0718D4384BEF
:105B8000D96808788006000F6021084338215854EE
:105B9000DA6811788808302202408801111C01431C
:105BA0003920195400215987DA680132DA6007E098
:105BB0002B4B602138229954002239215A545A879C
:105BC000042358461840824606D1254BDA681078DF
:105BD0003E2158540132DA60032359460B4005D068
:105BE000214AD15C3F231E4AD15406E01C4BDA689F
:105BF00010783F2158540132DA60424693069B0FD9
:105C00009B46520634D5484643B20020002B05DAA5
:105C1000134B5A7C5B699B189878000959460029F8
:105C200007D0FFF7B7FD114B9863002800D0C5E1FE
:105C300064E1002201920C4B5B441B799B461A20C5
:105C4000FEF7AAFF031C0648403001995A46FFF7A9
:105C500001FE1DE0C046C046204E000000000000CE
:105C600080030020C01F002090D600008007002085
:105C7000D948031C5B441B7A9B461A20FEF78CFF15
:105C8000031CD6484030D4490C315A46FFF7E2FD98
:105C90000323414619408B46424612071DD5434611
:105CA0005B0752D403A8CC491031022206F067F8F2
:105CB0005B46013B012B06D8C84AD368187803A974
:105CC00048700133D360C5485030C34B5B441A7DE4
:105CD00003A90023FFF7BEFD37E04046400723D568
:105CE00049464BB20020002B06DABC4B5A7C5B695C
:105CF0009B189B780F201840FFF74CFD8046B84B4F
:105D00009863002800D1F9E0B34B5B441B799946B6
:105D10001B20FEF741FF031CB048503041460231C2
:105D20004A46FFF797FD10E0AB4A9046131C5B44D0
:105D30001B7A99461B20FEF72FFF031CA748503003
:105D400041460C314A46FFF785FDA44B1A7C2832A8
:105D50001A745146002900D192E0DA689046101C6E
:105D6000137807229343F02B00D089E011213E23C2
:105D70009A4AD154037804221A4091460C22934344
:105D8000DAB2F12A20D003D8F02A00D0B6E006E03B
:105D9000DAB2F22A30D0F32A00D0AFE042E08F49E5
:105DA0008A46081C603041460131022205F0E7FFB7
:105DB0005046623041460331022205F0E0FF43467F
:105DC00005335246D36046E0844B9A46181C603037
:105DD00041460131022205F0D2FF4046C378814995
